{
	"MarketRouter.sol": {
		"MarketRouter": {
			"abi": [
				{
					"inputs": [
						{
							"internalType": "address",
							"name": "token",
							"type": "address"
						}
					],
					"name": "SafeERC20FailedOperation",
					"type": "error"
				},
				{
					"anonymous": false,
					"inputs": [
						{
							"indexed": true,
							"internalType": "address",
							"name": "user",
							"type": "address"
						},
						{
							"indexed": false,
							"internalType": "uint256",
							"name": "totalAmount",
							"type": "uint256"
						},
						{
							"indexed": false,
							"internalType": "uint256",
							"name": "marketCount",
							"type": "uint256"
						}
					],
					"name": "BatchBetPlaced",
					"type": "event"
				},
				{
					"anonymous": false,
					"inputs": [
						{
							"indexed": true,
							"internalType": "address",
							"name": "user",
							"type": "address"
						},
						{
							"indexed": false,
							"internalType": "uint256",
							"name": "totalClaimed",
							"type": "uint256"
						},
						{
							"indexed": false,
							"internalType": "uint256",
							"name": "marketCount",
							"type": "uint256"
						}
					],
					"name": "BatchClaimExecuted",
					"type": "event"
				},
				{
					"inputs": [
						{
							"components": [
								{
									"internalType": "address",
									"name": "market",
									"type": "address"
								},
								{
									"internalType": "uint256",
									"name": "marketId",
									"type": "uint256"
								}
							],
							"internalType": "struct MarketRouter.BatchClaim[]",
							"name": "claims",
							"type": "tuple[]"
						}
					],
					"name": "batchClaim",
					"outputs": [],
					"stateMutability": "nonpayable",
					"type": "function"
				},
				{
					"inputs": [
						{
							"components": [
								{
									"internalType": "address",
									"name": "market",
									"type": "address"
								},
								{
									"internalType": "uint256",
									"name": "marketId",
									"type": "uint256"
								},
								{
									"internalType": "uint256",
									"name": "outcome",
									"type": "uint256"
								},
								{
									"internalType": "uint256",
									"name": "amount",
									"type": "uint256"
								}
							],
							"internalType": "struct MarketRouter.BatchBet[]",
							"name": "bets",
							"type": "tuple[]"
						},
						{
							"internalType": "contract IERC20",
							"name": "token",
							"type": "address"
						}
					],
					"name": "placeBatchBets",
					"outputs": [],
					"stateMutability": "nonpayable",
					"type": "function"
				}
			],
			"devdoc": {
				"errors": {
					"SafeERC20FailedOperation(address)": [
						{
							"details": "An operation with an ERC-20 token failed."
						}
					]
				},
				"kind": "dev",
				"methods": {},
				"version": 1
			},
			"evm": {
				"assembly": "    /* \"MarketRouter.sol\":445:2721  contract MarketRouter is ReentrancyGuard {... */\n  mstore(0x40, 0x80)\n  callvalue\n  dup1\n  iszero\n  tag_1\n  jumpi\n  revert(0x00, 0x00)\ntag_1:\n  pop\n    /* \"@openzeppelin/contracts/security/ReentrancyGuard.sol\":1716:1717  1 */\n  0x01\n    /* \"@openzeppelin/contracts/security/ReentrancyGuard.sol\":1821:1828  _status */\n  0x00\n    /* \"@openzeppelin/contracts/security/ReentrancyGuard.sol\":1821:1843  _status = _NOT_ENTERED */\n  dup2\n  swap1\n  sstore\n  pop\n    /* \"MarketRouter.sol\":445:2721  contract MarketRouter is ReentrancyGuard {... */\n  dataSize(sub_0)\n  dup1\n  dataOffset(sub_0)\n  0x00\n  codecopy\n  0x00\n  return\nstop\n\nsub_0: assembly {\n        /* \"MarketRouter.sol\":445:2721  contract MarketRouter is ReentrancyGuard {... */\n      mstore(0x40, 0x80)\n      callvalue\n      dup1\n      iszero\n      tag_1\n      jumpi\n      revert(0x00, 0x00)\n    tag_1:\n      pop\n      jumpi(tag_2, lt(calldatasize, 0x04))\n      shr(0xe0, calldataload(0x00))\n      dup1\n      0x8a48ca85\n      eq\n      tag_3\n      jumpi\n      dup1\n      0xead99b61\n      eq\n      tag_4\n      jumpi\n    tag_2:\n      revert(0x00, 0x00)\n        /* \"MarketRouter.sol\":1975:2718  function batchClaim(BatchClaim[] calldata claims) external nonReentrant {... */\n    tag_3:\n      tag_5\n      0x04\n      dup1\n      calldatasize\n      sub\n      dup2\n      add\n      swap1\n      tag_6\n      swap2\n      swap1\n      tag_7\n      jump\t// in\n    tag_6:\n      tag_8\n      jump\t// in\n    tag_5:\n      stop\n        /* \"MarketRouter.sol\":954:1963  function placeBatchBets(BatchBet[] calldata bets, IERC20 token) external nonReentrant {... */\n    tag_4:\n      tag_9\n      0x04\n      dup1\n      calldatasize\n      sub\n      dup2\n      add\n      swap1\n      tag_10\n      swap2\n      swap1\n      tag_11\n      jump\t// in\n    tag_10:\n      tag_12\n      jump\t// in\n    tag_9:\n      stop\n        /* \"MarketRouter.sol\":1975:2718  function batchClaim(BatchClaim[] calldata claims) external nonReentrant {... */\n    tag_8:\n        /* \"@openzeppelin/contracts/security/ReentrancyGuard.sol\":2261:2282  _nonReentrantBefore() */\n      tag_14\n        /* \"@openzeppelin/contracts/security/ReentrancyGuard.sol\":2261:2280  _nonReentrantBefore */\n      tag_15\n        /* \"@openzeppelin/contracts/security/ReentrancyGuard.sol\":2261:2282  _nonReentrantBefore() */\n      jump\t// in\n    tag_14:\n        /* \"MarketRouter.sol\":2082:2083  0 */\n      0x00\n        /* \"MarketRouter.sol\":2066:2072  claims */\n      dup3\n      dup3\n        /* \"MarketRouter.sol\":2066:2079  claims.length */\n      swap1\n      pop\n        /* \"MarketRouter.sol\":2066:2083  claims.length > 0 */\n      gt\n        /* \"MarketRouter.sol\":2058:2106  require(claims.length > 0, \"No claims provided\") */\n      tag_17\n      jumpi\n      mload(0x40)\n      0x08c379a000000000000000000000000000000000000000000000000000000000\n      dup2\n      mstore\n      0x04\n      add\n      tag_18\n      swap1\n      tag_19\n      jump\t// in\n    tag_18:\n      mload(0x40)\n      dup1\n      swap2\n      sub\n      swap1\n      revert\n    tag_17:\n        /* \"MarketRouter.sol\":2127:2147  uint256 totalClaimed */\n      0x00\n        /* \"MarketRouter.sol\":2150:2151  0 */\n      0x00\n        /* \"MarketRouter.sol\":2127:2151  uint256 totalClaimed = 0 */\n      swap1\n      pop\n        /* \"MarketRouter.sol\":2162:2186  uint256 successfulClaims */\n      0x00\n        /* \"MarketRouter.sol\":2189:2190  0 */\n      0x00\n        /* \"MarketRouter.sol\":2162:2190  uint256 successfulClaims = 0 */\n      swap1\n      pop\n        /* \"MarketRouter.sol\":2216:2225  uint256 i */\n      0x00\n        /* \"MarketRouter.sol\":2228:2229  0 */\n      0x00\n        /* \"MarketRouter.sol\":2216:2229  uint256 i = 0 */\n      swap1\n      pop\n        /* \"MarketRouter.sol\":2211:2623  for (uint256 i = 0; i < claims.length; ) {... */\n    tag_20:\n        /* \"MarketRouter.sol\":2235:2241  claims */\n      dup5\n      dup5\n        /* \"MarketRouter.sol\":2235:2248  claims.length */\n      swap1\n      pop\n        /* \"MarketRouter.sol\":2231:2232  i */\n      dup2\n        /* \"MarketRouter.sol\":2231:2248  i < claims.length */\n      lt\n        /* \"MarketRouter.sol\":2211:2623  for (uint256 i = 0; i < claims.length; ) {... */\n      iszero\n      tag_21\n      jumpi\n        /* \"MarketRouter.sol\":2267:2290  BatchClaim memory claim */\n      0x00\n        /* \"MarketRouter.sol\":2293:2299  claims */\n      dup6\n      dup6\n        /* \"MarketRouter.sol\":2300:2301  i */\n      dup4\n        /* \"MarketRouter.sol\":2293:2302  claims[i] */\n      dup2\n      dup2\n      lt\n      tag_23\n      jumpi\n      tag_24\n      tag_25\n      jump\t// in\n    tag_24:\n    tag_23:\n      swap1\n      pop\n      0x40\n      mul\n      add\n        /* \"MarketRouter.sol\":2267:2302  BatchClaim memory claim = claims[i] */\n      dup1\n      calldatasize\n      sub\n      dup2\n      add\n      swap1\n      tag_26\n      swap2\n      swap1\n      tag_27\n      jump\t// in\n    tag_26:\n      swap1\n      pop\n        /* \"MarketRouter.sol\":2352:2357  claim */\n      dup1\n        /* \"MarketRouter.sol\":2352:2364  claim.market */\n      0x00\n      add\n      mload\n        /* \"MarketRouter.sol\":2335:2379  PredictionMarket(claim.market).claimWinnings */\n      0xffffffffffffffffffffffffffffffffffffffff\n      and\n      0x677bd9ff\n        /* \"MarketRouter.sol\":2380:2385  claim */\n      dup3\n        /* \"MarketRouter.sol\":2380:2394  claim.marketId */\n      0x20\n      add\n      mload\n        /* \"MarketRouter.sol\":2335:2395  PredictionMarket(claim.market).claimWinnings(claim.marketId) */\n      mload(0x40)\n      dup3\n      0xffffffff\n      and\n      0xe0\n      shl\n      dup2\n      mstore\n      0x04\n      add\n      tag_28\n      swap2\n      swap1\n      tag_29\n      jump\t// in\n    tag_28:\n      0x20\n      mload(0x40)\n      dup1\n      dup4\n      sub\n      dup2\n      0x00\n      dup8\n      gas\n      call\n      swap3\n      pop\n      pop\n      pop\n      dup1\n      iszero\n      tag_30\n      jumpi\n      pop\n      mload(0x40)\n      returndatasize\n      not(0x1f)\n      0x1f\n      dup3\n      add\n      and\n      dup3\n      add\n      dup1\n      0x40\n      mstore\n      pop\n      dup2\n      add\n      swap1\n      tag_31\n      swap2\n      swap1\n      tag_32\n      jump\t// in\n    tag_31:\n      0x01\n    tag_30:\n        /* \"MarketRouter.sol\":2331:2578  try PredictionMarket(claim.market).claimWinnings(claim.marketId) returns (uint256 claimed) {... */\n      iszero\n      tag_37\n      jumpi\n        /* \"MarketRouter.sol\":2457:2464  claimed */\n      dup1\n        /* \"MarketRouter.sol\":2441:2464  totalClaimed += claimed */\n      dup6\n      tag_38\n      swap2\n      swap1\n      tag_39\n      jump\t// in\n    tag_38:\n      swap5\n      pop\n        /* \"MarketRouter.sol\":2483:2501  successfulClaims++ */\n      dup4\n      dup1\n      tag_40\n      swap1\n      tag_41\n      jump\t// in\n    tag_40:\n      swap5\n      pop\n      pop\n        /* \"MarketRouter.sol\":2396:2517  returns (uint256 claimed) {... */\n      pop\n        /* \"MarketRouter.sol\":2331:2578  try PredictionMarket(claim.market).claimWinnings(claim.marketId) returns (uint256 claimed) {... */\n    tag_37:\n        /* \"MarketRouter.sol\":2606:2609  i++ */\n      dup2\n      dup1\n      0x01\n      add\n      swap3\n      pop\n      pop\n        /* \"MarketRouter.sol\":2252:2623  {... */\n      pop\n        /* \"MarketRouter.sol\":2211:2623  for (uint256 i = 0; i < claims.length; ) {... */\n      jump(tag_20)\n    tag_21:\n      pop\n        /* \"MarketRouter.sol\":2667:2677  msg.sender */\n      caller\n        /* \"MarketRouter.sol\":2648:2710  BatchClaimExecuted(msg.sender, totalClaimed, successfulClaims) */\n      0xffffffffffffffffffffffffffffffffffffffff\n      and\n      0xb9c05773bac087c79ca346191a3f49b33e00ab1c6913f7788c9a3ec9391beab2\n        /* \"MarketRouter.sol\":2679:2691  totalClaimed */\n      dup4\n        /* \"MarketRouter.sol\":2693:2709  successfulClaims */\n      dup4\n        /* \"MarketRouter.sol\":2648:2710  BatchClaimExecuted(msg.sender, totalClaimed, successfulClaims) */\n      mload(0x40)\n      tag_42\n      swap3\n      swap2\n      swap1\n      tag_43\n      jump\t// in\n    tag_42:\n      mload(0x40)\n      dup1\n      swap2\n      sub\n      swap1\n      log2\n        /* \"MarketRouter.sol\":2047:2718  {... */\n      pop\n      pop\n        /* \"@openzeppelin/contracts/security/ReentrancyGuard.sol\":2303:2323  _nonReentrantAfter() */\n      tag_44\n        /* \"@openzeppelin/contracts/security/ReentrancyGuard.sol\":2303:2321  _nonReentrantAfter */\n      tag_45\n        /* \"@openzeppelin/contracts/security/ReentrancyGuard.sol\":2303:2323  _nonReentrantAfter() */\n      jump\t// in\n    tag_44:\n        /* \"MarketRouter.sol\":1975:2718  function batchClaim(BatchClaim[] calldata claims) external nonReentrant {... */\n      pop\n      pop\n      jump\t// out\n        /* \"MarketRouter.sol\":954:1963  function placeBatchBets(BatchBet[] calldata bets, IERC20 token) external nonReentrant {... */\n    tag_12:\n        /* \"@openzeppelin/contracts/security/ReentrancyGuard.sol\":2261:2282  _nonReentrantBefore() */\n      tag_47\n        /* \"@openzeppelin/contracts/security/ReentrancyGuard.sol\":2261:2280  _nonReentrantBefore */\n      tag_15\n        /* \"@openzeppelin/contracts/security/ReentrancyGuard.sol\":2261:2282  _nonReentrantBefore() */\n      jump\t// in\n    tag_47:\n        /* \"MarketRouter.sol\":1073:1074  0 */\n      0x00\n        /* \"MarketRouter.sol\":1059:1063  bets */\n      dup4\n      dup4\n        /* \"MarketRouter.sol\":1059:1070  bets.length */\n      swap1\n      pop\n        /* \"MarketRouter.sol\":1059:1074  bets.length > 0 */\n      gt\n        /* \"MarketRouter.sol\":1051:1095  require(bets.length > 0, \"No bets provided\") */\n      tag_49\n      jumpi\n      mload(0x40)\n      0x08c379a000000000000000000000000000000000000000000000000000000000\n      dup2\n      mstore\n      0x04\n      add\n      tag_50\n      swap1\n      tag_51\n      jump\t// in\n    tag_50:\n      mload(0x40)\n      dup1\n      swap2\n      sub\n      swap1\n      revert\n    tag_49:\n        /* \"MarketRouter.sol\":1116:1135  uint256 totalAmount */\n      0x00\n        /* \"MarketRouter.sol\":1138:1139  0 */\n      0x00\n        /* \"MarketRouter.sol\":1116:1139  uint256 totalAmount = 0 */\n      swap1\n      pop\n        /* \"MarketRouter.sol\":1155:1164  uint256 i */\n      0x00\n        /* \"MarketRouter.sol\":1167:1168  0 */\n      0x00\n        /* \"MarketRouter.sol\":1155:1168  uint256 i = 0 */\n      swap1\n      pop\n        /* \"MarketRouter.sol\":1150:1277  for (uint256 i = 0; i < bets.length; ) {... */\n    tag_52:\n        /* \"MarketRouter.sol\":1174:1178  bets */\n      dup5\n      dup5\n        /* \"MarketRouter.sol\":1174:1185  bets.length */\n      swap1\n      pop\n        /* \"MarketRouter.sol\":1170:1171  i */\n      dup2\n        /* \"MarketRouter.sol\":1170:1185  i < bets.length */\n      lt\n        /* \"MarketRouter.sol\":1150:1277  for (uint256 i = 0; i < bets.length; ) {... */\n      iszero\n      tag_53\n      jumpi\n        /* \"MarketRouter.sol\":1219:1223  bets */\n      dup5\n      dup5\n        /* \"MarketRouter.sol\":1224:1225  i */\n      dup3\n        /* \"MarketRouter.sol\":1219:1226  bets[i] */\n      dup2\n      dup2\n      lt\n      tag_55\n      jumpi\n      tag_56\n      tag_25\n      jump\t// in\n    tag_56:\n    tag_55:\n      swap1\n      pop\n      0x80\n      mul\n      add\n        /* \"MarketRouter.sol\":1219:1233  bets[i].amount */\n      0x60\n      add\n      calldataload\n        /* \"MarketRouter.sol\":1204:1233  totalAmount += bets[i].amount */\n      dup3\n      tag_57\n      swap2\n      swap1\n      tag_39\n      jump\t// in\n    tag_57:\n      swap2\n      pop\n        /* \"MarketRouter.sol\":1260:1263  i++ */\n      dup1\n      dup1\n      0x01\n      add\n      swap2\n      pop\n      pop\n        /* \"MarketRouter.sol\":1150:1277  for (uint256 i = 0; i < bets.length; ) {... */\n      jump(tag_52)\n    tag_53:\n      pop\n        /* \"MarketRouter.sol\":1326:1388  token.safeTransferFrom(msg.sender, address(this), totalAmount) */\n      tag_58\n        /* \"MarketRouter.sol\":1349:1359  msg.sender */\n      caller\n        /* \"MarketRouter.sol\":1369:1373  this */\n      address\n        /* \"MarketRouter.sol\":1376:1387  totalAmount */\n      dup4\n        /* \"MarketRouter.sol\":1326:1331  token */\n      dup6\n        /* \"MarketRouter.sol\":1326:1348  token.safeTransferFrom */\n      0xffffffffffffffffffffffffffffffffffffffff\n      and\n      tag_59\n      swap1\n        /* \"MarketRouter.sol\":1326:1388  token.safeTransferFrom(msg.sender, address(this), totalAmount) */\n      swap4\n      swap3\n      swap2\n      swap1\n      0xffffffff\n      and\n      jump\t// in\n    tag_58:\n        /* \"MarketRouter.sol\":1427:1443  uint256 refunded */\n      0x00\n        /* \"MarketRouter.sol\":1446:1447  0 */\n      0x00\n        /* \"MarketRouter.sol\":1427:1447  uint256 refunded = 0 */\n      swap1\n      pop\n        /* \"MarketRouter.sol\":1460:1469  uint256 i */\n      0x00\n        /* \"MarketRouter.sol\":1472:1473  0 */\n      0x00\n        /* \"MarketRouter.sol\":1460:1473  uint256 i = 0 */\n      swap1\n      pop\n        /* \"MarketRouter.sol\":1455:1865  for (uint256 i = 0; i < bets.length; ) {... */\n    tag_60:\n        /* \"MarketRouter.sol\":1479:1483  bets */\n      dup6\n      dup6\n        /* \"MarketRouter.sol\":1479:1490  bets.length */\n      swap1\n      pop\n        /* \"MarketRouter.sol\":1475:1476  i */\n      dup2\n        /* \"MarketRouter.sol\":1475:1490  i < bets.length */\n      lt\n        /* \"MarketRouter.sol\":1455:1865  for (uint256 i = 0; i < bets.length; ) {... */\n      iszero\n      tag_61\n      jumpi\n        /* \"MarketRouter.sol\":1501:1520  BatchBet memory bet */\n      0x00\n        /* \"MarketRouter.sol\":1523:1527  bets */\n      dup7\n      dup7\n        /* \"MarketRouter.sol\":1528:1529  i */\n      dup4\n        /* \"MarketRouter.sol\":1523:1530  bets[i] */\n      dup2\n      dup2\n      lt\n      tag_63\n      jumpi\n      tag_64\n      tag_25\n      jump\t// in\n    tag_64:\n    tag_63:\n      swap1\n      pop\n      0x80\n      mul\n      add\n        /* \"MarketRouter.sol\":1501:1530  BatchBet memory bet = bets[i] */\n      dup1\n      calldatasize\n      sub\n      dup2\n      add\n      swap1\n      tag_65\n      swap2\n      swap1\n      tag_66\n      jump\t// in\n    tag_65:\n      swap1\n      pop\n        /* \"MarketRouter.sol\":1571:1613  token.forceApprove(bet.market, bet.amount) */\n      tag_67\n        /* \"MarketRouter.sol\":1590:1593  bet */\n      dup2\n        /* \"MarketRouter.sol\":1590:1600  bet.market */\n      0x00\n      add\n      mload\n        /* \"MarketRouter.sol\":1602:1605  bet */\n      dup3\n        /* \"MarketRouter.sol\":1602:1612  bet.amount */\n      0x60\n      add\n      mload\n        /* \"MarketRouter.sol\":1571:1576  token */\n      dup8\n        /* \"MarketRouter.sol\":1571:1589  token.forceApprove */\n      0xffffffffffffffffffffffffffffffffffffffff\n      and\n      tag_68\n      swap1\n        /* \"MarketRouter.sol\":1571:1613  token.forceApprove(bet.market, bet.amount) */\n      swap3\n      swap2\n      swap1\n      0xffffffff\n      and\n      jump\t// in\n    tag_67:\n        /* \"MarketRouter.sol\":1647:1650  bet */\n      dup1\n        /* \"MarketRouter.sol\":1647:1657  bet.market */\n      0x00\n      add\n      mload\n        /* \"MarketRouter.sol\":1630:1667  PredictionMarket(bet.market).placeBet */\n      0xffffffffffffffffffffffffffffffffffffffff\n      and\n      0xe71c9697\n        /* \"MarketRouter.sol\":1668:1671  bet */\n      dup3\n        /* \"MarketRouter.sol\":1668:1680  bet.marketId */\n      0x20\n      add\n      mload\n        /* \"MarketRouter.sol\":1682:1685  bet */\n      dup4\n        /* \"MarketRouter.sol\":1682:1693  bet.outcome */\n      0x40\n      add\n      mload\n        /* \"MarketRouter.sol\":1695:1698  bet */\n      dup5\n        /* \"MarketRouter.sol\":1695:1705  bet.amount */\n      0x60\n      add\n      mload\n        /* \"MarketRouter.sol\":1630:1706  PredictionMarket(bet.market).placeBet(bet.marketId, bet.outcome, bet.amount) */\n      mload(0x40)\n      dup5\n      0xffffffff\n      and\n      0xe0\n      shl\n      dup2\n      mstore\n      0x04\n      add\n      tag_69\n      swap4\n      swap3\n      swap2\n      swap1\n      tag_70\n      jump\t// in\n    tag_69:\n      0x00\n      mload(0x40)\n      dup1\n      dup4\n      sub\n      dup2\n      0x00\n      dup8\n      dup1\n      extcodesize\n      iszero\n      dup1\n      iszero\n      tag_71\n      jumpi\n      revert(0x00, 0x00)\n    tag_71:\n      pop\n      gas\n      call\n      swap3\n      pop\n      pop\n      pop\n      dup1\n      iszero\n      tag_72\n      jumpi\n      pop\n      0x01\n    tag_72:\n        /* \"MarketRouter.sol\":1626:1836  try PredictionMarket(bet.market).placeBet(bet.marketId, bet.outcome, bet.amount) {... */\n      tag_73\n      jumpi\n        /* \"MarketRouter.sol\":1765:1768  bet */\n      dup1\n        /* \"MarketRouter.sol\":1765:1775  bet.amount */\n      0x60\n      add\n      mload\n        /* \"MarketRouter.sol\":1753:1775  refunded += bet.amount */\n      dup4\n      tag_77\n      swap2\n      swap1\n      tag_39\n      jump\t// in\n    tag_77:\n      swap3\n      pop\n        /* \"MarketRouter.sol\":1786:1828  token.safeTransfer(msg.sender, bet.amount) */\n      tag_78\n        /* \"MarketRouter.sol\":1805:1815  msg.sender */\n      caller\n        /* \"MarketRouter.sol\":1817:1820  bet */\n      dup3\n        /* \"MarketRouter.sol\":1817:1827  bet.amount */\n      0x60\n      add\n      mload\n        /* \"MarketRouter.sol\":1786:1791  token */\n      dup8\n        /* \"MarketRouter.sol\":1786:1804  token.safeTransfer */\n      0xffffffffffffffffffffffffffffffffffffffff\n      and\n      tag_79\n      swap1\n        /* \"MarketRouter.sol\":1786:1828  token.safeTransfer(msg.sender, bet.amount) */\n      swap3\n      swap2\n      swap1\n      0xffffffff\n      and\n      jump\t// in\n    tag_78:\n        /* \"MarketRouter.sol\":1626:1836  try PredictionMarket(bet.market).placeBet(bet.marketId, bet.outcome, bet.amount) {... */\n      jump(tag_80)\n    tag_73:\n    tag_80:\n        /* \"MarketRouter.sol\":1856:1859  i++ */\n      dup2\n      dup1\n      0x01\n      add\n      swap3\n      pop\n      pop\n        /* \"MarketRouter.sol\":1494:1865  {... */\n      pop\n        /* \"MarketRouter.sol\":1455:1865  for (uint256 i = 0; i < bets.length; ) {... */\n      jump(tag_60)\n    tag_61:\n      pop\n        /* \"MarketRouter.sol\":1907:1917  msg.sender */\n      caller\n        /* \"MarketRouter.sol\":1892:1955  BatchBetPlaced(msg.sender, totalAmount - refunded, bets.length) */\n      0xffffffffffffffffffffffffffffffffffffffff\n      and\n      0xfaa3f3b5e4bd3185bc059a2498b70867fd2b41976ecd9d924e19972a00a007ee\n        /* \"MarketRouter.sol\":1933:1941  refunded */\n      dup3\n        /* \"MarketRouter.sol\":1919:1930  totalAmount */\n      dup5\n        /* \"MarketRouter.sol\":1919:1941  totalAmount - refunded */\n      tag_81\n      swap2\n      swap1\n      tag_82\n      jump\t// in\n    tag_81:\n        /* \"MarketRouter.sol\":1943:1947  bets */\n      dup8\n      dup8\n        /* \"MarketRouter.sol\":1943:1954  bets.length */\n      swap1\n      pop\n        /* \"MarketRouter.sol\":1892:1955  BatchBetPlaced(msg.sender, totalAmount - refunded, bets.length) */\n      mload(0x40)\n      tag_83\n      swap3\n      swap2\n      swap1\n      tag_43\n      jump\t// in\n    tag_83:\n      mload(0x40)\n      dup1\n      swap2\n      sub\n      swap1\n      log2\n        /* \"MarketRouter.sol\":1040:1963  {... */\n      pop\n      pop\n        /* \"@openzeppelin/contracts/security/ReentrancyGuard.sol\":2303:2323  _nonReentrantAfter() */\n      tag_84\n        /* \"@openzeppelin/contracts/security/ReentrancyGuard.sol\":2303:2321  _nonReentrantAfter */\n      tag_45\n        /* \"@openzeppelin/contracts/security/ReentrancyGuard.sol\":2303:2323  _nonReentrantAfter() */\n      jump\t// in\n    tag_84:\n        /* \"MarketRouter.sol\":954:1963  function placeBatchBets(BatchBet[] calldata bets, IERC20 token) external nonReentrant {... */\n      pop\n      pop\n      pop\n      jump\t// out\n        /* \"@openzeppelin/contracts/security/ReentrancyGuard.sol\":2336:2623  function _nonReentrantBefore() private {... */\n    tag_15:\n        /* \"@openzeppelin/contracts/security/ReentrancyGuard.sol\":1759:1760  2 */\n      0x02\n        /* \"@openzeppelin/contracts/security/ReentrancyGuard.sol\":2468:2475  _status */\n      sload(0x00)\n        /* \"@openzeppelin/contracts/security/ReentrancyGuard.sol\":2468:2487  _status != _ENTERED */\n      sub\n        /* \"@openzeppelin/contracts/security/ReentrancyGuard.sol\":2460:2523  require(_status != _ENTERED, \"ReentrancyGuard: reentrant call\") */\n      tag_86\n      jumpi\n      mload(0x40)\n      0x08c379a000000000000000000000000000000000000000000000000000000000\n      dup2\n      mstore\n      0x04\n      add\n      tag_87\n      swap1\n      tag_88\n      jump\t// in\n    tag_87:\n      mload(0x40)\n      dup1\n      swap2\n      sub\n      swap1\n      revert\n    tag_86:\n        /* \"@openzeppelin/contracts/security/ReentrancyGuard.sol\":1759:1760  2 */\n      0x02\n        /* \"@openzeppelin/contracts/security/ReentrancyGuard.sol\":2598:2605  _status */\n      0x00\n        /* \"@openzeppelin/contracts/security/ReentrancyGuard.sol\":2598:2616  _status = _ENTERED */\n      dup2\n      swap1\n      sstore\n      pop\n        /* \"@openzeppelin/contracts/security/ReentrancyGuard.sol\":2336:2623  function _nonReentrantBefore() private {... */\n      jump\t// out\n        /* \"@openzeppelin/contracts/security/ReentrancyGuard.sol\":2629:2838  function _nonReentrantAfter() private {... */\n    tag_45:\n        /* \"@openzeppelin/contracts/security/ReentrancyGuard.sol\":1716:1717  1 */\n      0x01\n        /* \"@openzeppelin/contracts/security/ReentrancyGuard.sol\":2809:2816  _status */\n      0x00\n        /* \"@openzeppelin/contracts/security/ReentrancyGuard.sol\":2809:2831  _status = _NOT_ENTERED */\n      dup2\n      swap1\n      sstore\n      pop\n        /* \"@openzeppelin/contracts/security/ReentrancyGuard.sol\":2629:2838  function _nonReentrantAfter() private {... */\n      jump\t// out\n        /* \"@openzeppelin/contracts/token/ERC20/utils/SafeERC20.sol\":1618:1806  function safeTransferFrom(IERC20 token, address from, address to, uint256 value) internal {... */\n    tag_59:\n        /* \"@openzeppelin/contracts/token/ERC20/utils/SafeERC20.sol\":1718:1799  _callOptionalReturn(token, abi.encodeCall(token.transferFrom, (from, to, value))) */\n      tag_91\n        /* \"@openzeppelin/contracts/token/ERC20/utils/SafeERC20.sol\":1738:1743  token */\n      dup5\n        /* \"@openzeppelin/contracts/token/ERC20/utils/SafeERC20.sol\":1760:1765  token */\n      dup6\n        /* \"@openzeppelin/contracts/token/ERC20/utils/SafeERC20.sol\":1760:1778  token.transferFrom */\n      0xffffffffffffffffffffffffffffffffffffffff\n      and\n      0x23b872dd\n        /* \"@openzeppelin/contracts/token/ERC20/utils/SafeERC20.sol\":1781:1785  from */\n      dup7\n        /* \"@openzeppelin/contracts/token/ERC20/utils/SafeERC20.sol\":1787:1789  to */\n      dup7\n        /* \"@openzeppelin/contracts/token/ERC20/utils/SafeERC20.sol\":1791:1796  value */\n      dup7\n        /* \"@openzeppelin/contracts/token/ERC20/utils/SafeERC20.sol\":1745:1798  abi.encodeCall(token.transferFrom, (from, to, value)) */\n      add(0x24, mload(0x40))\n      tag_92\n      swap4\n      swap3\n      swap2\n      swap1\n      tag_93\n      jump\t// in\n    tag_92:\n      mload(0x40)\n      0x20\n      dup2\n      dup4\n      sub\n      sub\n      dup2\n      mstore\n      swap1\n      0x40\n      mstore\n      swap2\n      pop\n      0xe0\n      shl\n      0x20\n      dup3\n      add\n      dup1\n      mload\n      0xffffffffffffffffffffffffffffffffffffffffffffffffffffffff\n      dup4\n      dup2\n      dup4\n      and\n      or\n      dup4\n      mstore\n      pop\n      pop\n      pop\n      pop\n        /* \"@openzeppelin/contracts/token/ERC20/utils/SafeERC20.sol\":1718:1737  _callOptionalReturn */\n      tag_94\n        /* \"@openzeppelin/contracts/token/ERC20/utils/SafeERC20.sol\":1718:1799  _callOptionalReturn(token, abi.encodeCall(token.transferFrom, (from, to, value))) */\n      jump\t// in\n    tag_91:\n        /* \"@openzeppelin/contracts/token/ERC20/utils/SafeERC20.sol\":1618:1806  function safeTransferFrom(IERC20 token, address from, address to, uint256 value) internal {... */\n      pop\n      pop\n      pop\n      pop\n      jump\t// out\n        /* \"@openzeppelin/contracts/token/ERC20/utils/SafeERC20.sol\":5084:5464  function forceApprove(IERC20 token, address spender, uint256 value) internal {... */\n    tag_68:\n        /* \"@openzeppelin/contracts/token/ERC20/utils/SafeERC20.sol\":5171:5196  bytes memory approvalCall */\n      0x00\n        /* \"@openzeppelin/contracts/token/ERC20/utils/SafeERC20.sol\":5214:5219  token */\n      dup4\n        /* \"@openzeppelin/contracts/token/ERC20/utils/SafeERC20.sol\":5214:5227  token.approve */\n      0xffffffffffffffffffffffffffffffffffffffff\n      and\n      0x095ea7b3\n        /* \"@openzeppelin/contracts/token/ERC20/utils/SafeERC20.sol\":5230:5237  spender */\n      dup5\n        /* \"@openzeppelin/contracts/token/ERC20/utils/SafeERC20.sol\":5239:5244  value */\n      dup5\n        /* \"@openzeppelin/contracts/token/ERC20/utils/SafeERC20.sol\":5199:5246  abi.encodeCall(token.approve, (spender, value)) */\n      add(0x24, mload(0x40))\n      tag_96\n      swap3\n      swap2\n      swap1\n      tag_97\n      jump\t// in\n    tag_96:\n      mload(0x40)\n      0x20\n      dup2\n      dup4\n      sub\n      sub\n      dup2\n      mstore\n      swap1\n      0x40\n      mstore\n      swap2\n      pop\n      0xe0\n      shl\n      0x20\n      dup3\n      add\n      dup1\n      mload\n      0xffffffffffffffffffffffffffffffffffffffffffffffffffffffff\n      dup4\n      dup2\n      dup4\n      and\n      or\n      dup4\n      mstore\n      pop\n      pop\n      pop\n      pop\n        /* \"@openzeppelin/contracts/token/ERC20/utils/SafeERC20.sol\":5171:5246  bytes memory approvalCall = abi.encodeCall(token.approve, (spender, value)) */\n      swap1\n      pop\n        /* \"@openzeppelin/contracts/token/ERC20/utils/SafeERC20.sol\":5262:5306  _callOptionalReturnBool(token, approvalCall) */\n      tag_98\n        /* \"@openzeppelin/contracts/token/ERC20/utils/SafeERC20.sol\":5286:5291  token */\n      dup5\n        /* \"@openzeppelin/contracts/token/ERC20/utils/SafeERC20.sol\":5293:5305  approvalCall */\n      dup3\n        /* \"@openzeppelin/contracts/token/ERC20/utils/SafeERC20.sol\":5262:5285  _callOptionalReturnBool */\n      tag_99\n        /* \"@openzeppelin/contracts/token/ERC20/utils/SafeERC20.sol\":5262:5306  _callOptionalReturnBool(token, approvalCall) */\n      jump\t// in\n    tag_98:\n        /* \"@openzeppelin/contracts/token/ERC20/utils/SafeERC20.sol\":5257:5458  if (!_callOptionalReturnBool(token, approvalCall)) {... */\n      tag_100\n      jumpi\n        /* \"@openzeppelin/contracts/token/ERC20/utils/SafeERC20.sol\":5322:5393  _callOptionalReturn(token, abi.encodeCall(token.approve, (spender, 0))) */\n      tag_101\n        /* \"@openzeppelin/contracts/token/ERC20/utils/SafeERC20.sol\":5342:5347  token */\n      dup5\n        /* \"@openzeppelin/contracts/token/ERC20/utils/SafeERC20.sol\":5364:5369  token */\n      dup6\n        /* \"@openzeppelin/contracts/token/ERC20/utils/SafeERC20.sol\":5364:5377  token.approve */\n      0xffffffffffffffffffffffffffffffffffffffff\n      and\n      0x095ea7b3\n        /* \"@openzeppelin/contracts/token/ERC20/utils/SafeERC20.sol\":5380:5387  spender */\n      dup7\n        /* \"@openzeppelin/contracts/token/ERC20/utils/SafeERC20.sol\":5389:5390  0 */\n      0x00\n        /* \"@openzeppelin/contracts/token/ERC20/utils/SafeERC20.sol\":5349:5392  abi.encodeCall(token.approve, (spender, 0)) */\n      add(0x24, mload(0x40))\n      tag_102\n      swap3\n      swap2\n      swap1\n      tag_103\n      jump\t// in\n    tag_102:\n      mload(0x40)\n      0x20\n      dup2\n      dup4\n      sub\n      sub\n      dup2\n      mstore\n      swap1\n      0x40\n      mstore\n      swap2\n      pop\n      0xe0\n      shl\n      0x20\n      dup3\n      add\n      dup1\n      mload\n      0xffffffffffffffffffffffffffffffffffffffffffffffffffffffff\n      dup4\n      dup2\n      dup4\n      and\n      or\n      dup4\n      mstore\n      pop\n      pop\n      pop\n      pop\n        /* \"@openzeppelin/contracts/token/ERC20/utils/SafeERC20.sol\":5322:5341  _callOptionalReturn */\n      tag_94\n        /* \"@openzeppelin/contracts/token/ERC20/utils/SafeERC20.sol\":5322:5393  _callOptionalReturn(token, abi.encodeCall(token.approve, (spender, 0))) */\n      jump\t// in\n    tag_101:\n        /* \"@openzeppelin/contracts/token/ERC20/utils/SafeERC20.sol\":5407:5447  _callOptionalReturn(token, approvalCall) */\n      tag_104\n        /* \"@openzeppelin/contracts/token/ERC20/utils/SafeERC20.sol\":5427:5432  token */\n      dup5\n        /* \"@openzeppelin/contracts/token/ERC20/utils/SafeERC20.sol\":5434:5446  approvalCall */\n      dup3\n        /* \"@openzeppelin/contracts/token/ERC20/utils/SafeERC20.sol\":5407:5426  _callOptionalReturn */\n      tag_94\n        /* \"@openzeppelin/contracts/token/ERC20/utils/SafeERC20.sol\":5407:5447  _callOptionalReturn(token, approvalCall) */\n      jump\t// in\n    tag_104:\n        /* \"@openzeppelin/contracts/token/ERC20/utils/SafeERC20.sol\":5257:5458  if (!_callOptionalReturnBool(token, approvalCall)) {... */\n    tag_100:\n        /* \"@openzeppelin/contracts/token/ERC20/utils/SafeERC20.sol\":5161:5464  {... */\n      pop\n        /* \"@openzeppelin/contracts/token/ERC20/utils/SafeERC20.sol\":5084:5464  function forceApprove(IERC20 token, address spender, uint256 value) internal {... */\n      pop\n      pop\n      pop\n      jump\t// out\n        /* \"@openzeppelin/contracts/token/ERC20/utils/SafeERC20.sol\":1219:1379  function safeTransfer(IERC20 token, address to, uint256 value) internal {... */\n    tag_79:\n        /* \"@openzeppelin/contracts/token/ERC20/utils/SafeERC20.sol\":1301:1372  _callOptionalReturn(token, abi.encodeCall(token.transfer, (to, value))) */\n      tag_106\n        /* \"@openzeppelin/contracts/token/ERC20/utils/SafeERC20.sol\":1321:1326  token */\n      dup4\n        /* \"@openzeppelin/contracts/token/ERC20/utils/SafeERC20.sol\":1343:1348  token */\n      dup5\n        /* \"@openzeppelin/contracts/token/ERC20/utils/SafeERC20.sol\":1343:1357  token.transfer */\n      0xffffffffffffffffffffffffffffffffffffffff\n      and\n      0xa9059cbb\n        /* \"@openzeppelin/contracts/token/ERC20/utils/SafeERC20.sol\":1360:1362  to */\n      dup6\n        /* \"@openzeppelin/contracts/token/ERC20/utils/SafeERC20.sol\":1364:1369  value */\n      dup6\n        /* \"@openzeppelin/contracts/token/ERC20/utils/SafeERC20.sol\":1328:1371  abi.encodeCall(token.transfer, (to, value)) */\n      add(0x24, mload(0x40))\n      tag_107\n      swap3\n      swap2\n      swap1\n      tag_97\n      jump\t// in\n    tag_107:\n      mload(0x40)\n      0x20\n      dup2\n      dup4\n      sub\n      sub\n      dup2\n      mstore\n      swap1\n      0x40\n      mstore\n      swap2\n      pop\n      0xe0\n      shl\n      0x20\n      dup3\n      add\n      dup1\n      mload\n      0xffffffffffffffffffffffffffffffffffffffffffffffffffffffff\n      dup4\n      dup2\n      dup4\n      and\n      or\n      dup4\n      mstore\n      pop\n      pop\n      pop\n      pop\n        /* \"@openzeppelin/contracts/token/ERC20/utils/SafeERC20.sol\":1301:1320  _callOptionalReturn */\n      tag_94\n        /* \"@openzeppelin/contracts/token/ERC20/utils/SafeERC20.sol\":1301:1372  _callOptionalReturn(token, abi.encodeCall(token.transfer, (to, value))) */\n      jump\t// in\n    tag_106:\n        /* \"@openzeppelin/contracts/token/ERC20/utils/SafeERC20.sol\":1219:1379  function safeTransfer(IERC20 token, address to, uint256 value) internal {... */\n      pop\n      pop\n      pop\n      jump\t// out\n        /* \"@openzeppelin/contracts/token/ERC20/utils/SafeERC20.sol\":8370:9090  function _callOptionalReturn(IERC20 token, bytes memory data) private {... */\n    tag_94:\n        /* \"@openzeppelin/contracts/token/ERC20/utils/SafeERC20.sol\":8450:8468  uint256 returnSize */\n      0x00\n        /* \"@openzeppelin/contracts/token/ERC20/utils/SafeERC20.sol\":8478:8497  uint256 returnValue */\n      0x00\n        /* \"@openzeppelin/contracts/token/ERC20/utils/SafeERC20.sol\":8616:8620  0x20 */\n      0x20\n        /* \"@openzeppelin/contracts/token/ERC20/utils/SafeERC20.sol\":8613:8614  0 */\n      0x00\n        /* \"@openzeppelin/contracts/token/ERC20/utils/SafeERC20.sol\":8606:8610  data */\n      dup5\n        /* \"@openzeppelin/contracts/token/ERC20/utils/SafeERC20.sol\":8600:8611  mload(data) */\n      mload\n        /* \"@openzeppelin/contracts/token/ERC20/utils/SafeERC20.sol\":8593:8597  0x20 */\n      0x20\n        /* \"@openzeppelin/contracts/token/ERC20/utils/SafeERC20.sol\":8587:8591  data */\n      dup7\n        /* \"@openzeppelin/contracts/token/ERC20/utils/SafeERC20.sol\":8583:8598  add(data, 0x20) */\n      add\n        /* \"@openzeppelin/contracts/token/ERC20/utils/SafeERC20.sol\":8580:8581  0 */\n      0x00\n        /* \"@openzeppelin/contracts/token/ERC20/utils/SafeERC20.sol\":8573:8578  token */\n      dup9\n        /* \"@openzeppelin/contracts/token/ERC20/utils/SafeERC20.sol\":8566:8571  gas() */\n      gas\n        /* \"@openzeppelin/contracts/token/ERC20/utils/SafeERC20.sol\":8561:8621  call(gas(), token, 0, add(data, 0x20), mload(data), 0, 0x20) */\n      call\n        /* \"@openzeppelin/contracts/token/ERC20/utils/SafeERC20.sol\":8673:8680  success */\n      dup1\n        /* \"@openzeppelin/contracts/token/ERC20/utils/SafeERC20.sol\":8663:8839  if iszero(success) {... */\n      tag_109\n      jumpi\n        /* \"@openzeppelin/contracts/token/ERC20/utils/SafeERC20.sol\":8717:8721  0x40 */\n      0x40\n        /* \"@openzeppelin/contracts/token/ERC20/utils/SafeERC20.sol\":8711:8722  mload(0x40) */\n      mload\n        /* \"@openzeppelin/contracts/token/ERC20/utils/SafeERC20.sol\":8762:8778  returndatasize() */\n      returndatasize\n        /* \"@openzeppelin/contracts/token/ERC20/utils/SafeERC20.sol\":8759:8760  0 */\n      0x00\n        /* \"@openzeppelin/contracts/token/ERC20/utils/SafeERC20.sol\":8754:8757  ptr */\n      dup3\n        /* \"@openzeppelin/contracts/token/ERC20/utils/SafeERC20.sol\":8739:8779  returndatacopy(ptr, 0, returndatasize()) */\n      returndatacopy\n        /* \"@openzeppelin/contracts/token/ERC20/utils/SafeERC20.sol\":8808:8824  returndatasize() */\n      returndatasize\n        /* \"@openzeppelin/contracts/token/ERC20/utils/SafeERC20.sol\":8803:8806  ptr */\n      dup2\n        /* \"@openzeppelin/contracts/token/ERC20/utils/SafeERC20.sol\":8796:8825  revert(ptr, returndatasize()) */\n      revert\n        /* \"@openzeppelin/contracts/token/ERC20/utils/SafeERC20.sol\":8663:8839  if iszero(success) {... */\n    tag_109:\n        /* \"@openzeppelin/contracts/token/ERC20/utils/SafeERC20.sol\":8866:8882  returndatasize() */\n      returndatasize\n        /* \"@openzeppelin/contracts/token/ERC20/utils/SafeERC20.sol\":8852:8882  returnSize := returndatasize() */\n      swap3\n      pop\n        /* \"@openzeppelin/contracts/token/ERC20/utils/SafeERC20.sol\":8916:8917  0 */\n      0x00\n        /* \"@openzeppelin/contracts/token/ERC20/utils/SafeERC20.sol\":8910:8918  mload(0) */\n      mload\n        /* \"@openzeppelin/contracts/token/ERC20/utils/SafeERC20.sol\":8895:8918  returnValue := mload(0) */\n      swap2\n      pop\n        /* \"@openzeppelin/contracts/token/ERC20/utils/SafeERC20.sol\":8532:8928  {... */\n      pop\n        /* \"@openzeppelin/contracts/token/ERC20/utils/SafeERC20.sol\":8956:8957  0 */\n      0x00\n        /* \"@openzeppelin/contracts/token/ERC20/utils/SafeERC20.sol\":8942:8952  returnSize */\n      dup3\n        /* \"@openzeppelin/contracts/token/ERC20/utils/SafeERC20.sol\":8942:8957  returnSize == 0 */\n      eq\n        /* \"@openzeppelin/contracts/token/ERC20/utils/SafeERC20.sol\":8942:9010  returnSize == 0 ? address(token).code.length == 0 : returnValue != 1 */\n      tag_110\n      jumpi\n        /* \"@openzeppelin/contracts/token/ERC20/utils/SafeERC20.sol\":9009:9010  1 */\n      0x01\n        /* \"@openzeppelin/contracts/token/ERC20/utils/SafeERC20.sol\":8994:9005  returnValue */\n      dup2\n        /* \"@openzeppelin/contracts/token/ERC20/utils/SafeERC20.sol\":8994:9010  returnValue != 1 */\n      eq\n      iszero\n        /* \"@openzeppelin/contracts/token/ERC20/utils/SafeERC20.sol\":8942:9010  returnSize == 0 ? address(token).code.length == 0 : returnValue != 1 */\n      jump(tag_111)\n    tag_110:\n        /* \"@openzeppelin/contracts/token/ERC20/utils/SafeERC20.sol\":8990:8991  0 */\n      0x00\n        /* \"@openzeppelin/contracts/token/ERC20/utils/SafeERC20.sol\":8968:8973  token */\n      dup5\n        /* \"@openzeppelin/contracts/token/ERC20/utils/SafeERC20.sol\":8960:8986  address(token).code.length */\n      0xffffffffffffffffffffffffffffffffffffffff\n      and\n      extcodesize\n        /* \"@openzeppelin/contracts/token/ERC20/utils/SafeERC20.sol\":8960:8991  address(token).code.length == 0 */\n      eq\n        /* \"@openzeppelin/contracts/token/ERC20/utils/SafeERC20.sol\":8942:9010  returnSize == 0 ? address(token).code.length == 0 : returnValue != 1 */\n    tag_111:\n        /* \"@openzeppelin/contracts/token/ERC20/utils/SafeERC20.sol\":8938:9084  if (returnSize == 0 ? address(token).code.length == 0 : returnValue != 1) {... */\n      iszero\n      tag_112\n      jumpi\n        /* \"@openzeppelin/contracts/token/ERC20/utils/SafeERC20.sol\":9066:9071  token */\n      dup4\n        /* \"@openzeppelin/contracts/token/ERC20/utils/SafeERC20.sol\":9033:9073  SafeERC20FailedOperation(address(token)) */\n      mload(0x40)\n      0x5274afe700000000000000000000000000000000000000000000000000000000\n      dup2\n      mstore\n      0x04\n      add\n      tag_113\n      swap2\n      swap1\n      tag_114\n      jump\t// in\n    tag_113:\n      mload(0x40)\n      dup1\n      swap2\n      sub\n      swap1\n      revert\n        /* \"@openzeppelin/contracts/token/ERC20/utils/SafeERC20.sol\":8938:9084  if (returnSize == 0 ? address(token).code.length == 0 : returnValue != 1) {... */\n    tag_112:\n        /* \"@openzeppelin/contracts/token/ERC20/utils/SafeERC20.sol\":8440:9090  {... */\n      pop\n      pop\n        /* \"@openzeppelin/contracts/token/ERC20/utils/SafeERC20.sol\":8370:9090  function _callOptionalReturn(IERC20 token, bytes memory data) private {... */\n      pop\n      pop\n      jump\t// out\n        /* \"@openzeppelin/contracts/token/ERC20/utils/SafeERC20.sol\":9592:10072  function _callOptionalReturnBool(IERC20 token, bytes memory data) private returns (bool) {... */\n    tag_99:\n        /* \"@openzeppelin/contracts/token/ERC20/utils/SafeERC20.sol\":9675:9679  bool */\n      0x00\n        /* \"@openzeppelin/contracts/token/ERC20/utils/SafeERC20.sol\":9691:9703  bool success */\n      0x00\n        /* \"@openzeppelin/contracts/token/ERC20/utils/SafeERC20.sol\":9713:9731  uint256 returnSize */\n      0x00\n        /* \"@openzeppelin/contracts/token/ERC20/utils/SafeERC20.sol\":9741:9760  uint256 returnValue */\n      0x00\n        /* \"@openzeppelin/contracts/token/ERC20/utils/SafeERC20.sol\":9875:9879  0x20 */\n      0x20\n        /* \"@openzeppelin/contracts/token/ERC20/utils/SafeERC20.sol\":9872:9873  0 */\n      0x00\n        /* \"@openzeppelin/contracts/token/ERC20/utils/SafeERC20.sol\":9865:9869  data */\n      dup7\n        /* \"@openzeppelin/contracts/token/ERC20/utils/SafeERC20.sol\":9859:9870  mload(data) */\n      mload\n        /* \"@openzeppelin/contracts/token/ERC20/utils/SafeERC20.sol\":9852:9856  0x20 */\n      0x20\n        /* \"@openzeppelin/contracts/token/ERC20/utils/SafeERC20.sol\":9846:9850  data */\n      dup9\n        /* \"@openzeppelin/contracts/token/ERC20/utils/SafeERC20.sol\":9842:9857  add(data, 0x20) */\n      add\n        /* \"@openzeppelin/contracts/token/ERC20/utils/SafeERC20.sol\":9839:9840  0 */\n      0x00\n        /* \"@openzeppelin/contracts/token/ERC20/utils/SafeERC20.sol\":9832:9837  token */\n      dup11\n        /* \"@openzeppelin/contracts/token/ERC20/utils/SafeERC20.sol\":9825:9830  gas() */\n      gas\n        /* \"@openzeppelin/contracts/token/ERC20/utils/SafeERC20.sol\":9820:9880  call(gas(), token, 0, add(data, 0x20), mload(data), 0, 0x20) */\n      call\n        /* \"@openzeppelin/contracts/token/ERC20/utils/SafeERC20.sol\":9809:9880  success := call(gas(), token, 0, add(data, 0x20), mload(data), 0, 0x20) */\n      swap3\n      pop\n        /* \"@openzeppelin/contracts/token/ERC20/utils/SafeERC20.sol\":9907:9923  returndatasize() */\n      returndatasize\n        /* \"@openzeppelin/contracts/token/ERC20/utils/SafeERC20.sol\":9893:9923  returnSize := returndatasize() */\n      swap2\n      pop\n        /* \"@openzeppelin/contracts/token/ERC20/utils/SafeERC20.sol\":9957:9958  0 */\n      0x00\n        /* \"@openzeppelin/contracts/token/ERC20/utils/SafeERC20.sol\":9951:9959  mload(0) */\n      mload\n        /* \"@openzeppelin/contracts/token/ERC20/utils/SafeERC20.sol\":9936:9959  returnValue := mload(0) */\n      swap1\n      pop\n        /* \"@openzeppelin/contracts/token/ERC20/utils/SafeERC20.sol\":9985:9992  success */\n      dup3\n        /* \"@openzeppelin/contracts/token/ERC20/utils/SafeERC20.sol\":9985:10065  success && (returnSize == 0 ? address(token).code.length > 0 : returnValue == 1) */\n      dup1\n      iszero\n      tag_116\n      jumpi\n      pop\n        /* \"@openzeppelin/contracts/token/ERC20/utils/SafeERC20.sol\":10011:10012  0 */\n      0x00\n        /* \"@openzeppelin/contracts/token/ERC20/utils/SafeERC20.sol\":9997:10007  returnSize */\n      dup3\n        /* \"@openzeppelin/contracts/token/ERC20/utils/SafeERC20.sol\":9997:10012  returnSize == 0 */\n      eq\n        /* \"@openzeppelin/contracts/token/ERC20/utils/SafeERC20.sol\":9997:10064  returnSize == 0 ? address(token).code.length > 0 : returnValue == 1 */\n      tag_117\n      jumpi\n        /* \"@openzeppelin/contracts/token/ERC20/utils/SafeERC20.sol\":10063:10064  1 */\n      0x01\n        /* \"@openzeppelin/contracts/token/ERC20/utils/SafeERC20.sol\":10048:10059  returnValue */\n      dup2\n        /* \"@openzeppelin/contracts/token/ERC20/utils/SafeERC20.sol\":10048:10064  returnValue == 1 */\n      eq\n        /* \"@openzeppelin/contracts/token/ERC20/utils/SafeERC20.sol\":9997:10064  returnSize == 0 ? address(token).code.length > 0 : returnValue == 1 */\n      jump(tag_118)\n    tag_117:\n        /* \"@openzeppelin/contracts/token/ERC20/utils/SafeERC20.sol\":10044:10045  0 */\n      0x00\n        /* \"@openzeppelin/contracts/token/ERC20/utils/SafeERC20.sol\":10023:10028  token */\n      dup7\n        /* \"@openzeppelin/contracts/token/ERC20/utils/SafeERC20.sol\":10015:10041  address(token).code.length */\n      0xffffffffffffffffffffffffffffffffffffffff\n      and\n      extcodesize\n        /* \"@openzeppelin/contracts/token/ERC20/utils/SafeERC20.sol\":10015:10045  address(token).code.length > 0 */\n      gt\n        /* \"@openzeppelin/contracts/token/ERC20/utils/SafeERC20.sol\":9997:10064  returnSize == 0 ? address(token).code.length > 0 : returnValue == 1 */\n    tag_118:\n        /* \"@openzeppelin/contracts/token/ERC20/utils/SafeERC20.sol\":9985:10065  success && (returnSize == 0 ? address(token).code.length > 0 : returnValue == 1) */\n    tag_116:\n        /* \"@openzeppelin/contracts/token/ERC20/utils/SafeERC20.sol\":9978:10065  return success && (returnSize == 0 ? address(token).code.length > 0 : returnValue == 1) */\n      swap4\n      pop\n      pop\n      pop\n      pop\n        /* \"@openzeppelin/contracts/token/ERC20/utils/SafeERC20.sol\":9592:10072  function _callOptionalReturnBool(IERC20 token, bytes memory data) private returns (bool) {... */\n      swap3\n      swap2\n      pop\n      pop\n      jump\t// out\n        /* \"#utility.yul\":7:82   */\n    tag_119:\n        /* \"#utility.yul\":40:46   */\n      0x00\n        /* \"#utility.yul\":73:75   */\n      0x40\n        /* \"#utility.yul\":67:76   */\n      mload\n        /* \"#utility.yul\":57:76   */\n      swap1\n      pop\n        /* \"#utility.yul\":7:82   */\n      swap1\n      jump\t// out\n        /* \"#utility.yul\":88:205   */\n    tag_120:\n        /* \"#utility.yul\":197:198   */\n      0x00\n        /* \"#utility.yul\":194:195   */\n      0x00\n        /* \"#utility.yul\":187:199   */\n      revert\n        /* \"#utility.yul\":211:328   */\n    tag_121:\n        /* \"#utility.yul\":320:321   */\n      0x00\n        /* \"#utility.yul\":317:318   */\n      0x00\n        /* \"#utility.yul\":310:322   */\n      revert\n        /* \"#utility.yul\":334:451   */\n    tag_122:\n        /* \"#utility.yul\":443:444   */\n      0x00\n        /* \"#utility.yul\":440:441   */\n      0x00\n        /* \"#utility.yul\":433:445   */\n      revert\n        /* \"#utility.yul\":457:574   */\n    tag_123:\n        /* \"#utility.yul\":566:567   */\n      0x00\n        /* \"#utility.yul\":563:564   */\n      0x00\n        /* \"#utility.yul\":556:568   */\n      revert\n        /* \"#utility.yul\":580:697   */\n    tag_124:\n        /* \"#utility.yul\":689:690   */\n      0x00\n        /* \"#utility.yul\":686:687   */\n      0x00\n        /* \"#utility.yul\":679:691   */\n      revert\n        /* \"#utility.yul\":743:1340   */\n    tag_125:\n        /* \"#utility.yul\":845:853   */\n      0x00\n        /* \"#utility.yul\":855:861   */\n      0x00\n        /* \"#utility.yul\":905:908   */\n      dup4\n        /* \"#utility.yul\":898:902   */\n      0x1f\n        /* \"#utility.yul\":890:896   */\n      dup5\n        /* \"#utility.yul\":886:903   */\n      add\n        /* \"#utility.yul\":882:909   */\n      slt\n        /* \"#utility.yul\":872:994   */\n      tag_168\n      jumpi\n        /* \"#utility.yul\":913:992   */\n      tag_169\n      tag_122\n      jump\t// in\n    tag_169:\n        /* \"#utility.yul\":872:994   */\n    tag_168:\n        /* \"#utility.yul\":1026:1032   */\n      dup3\n        /* \"#utility.yul\":1013:1033   */\n      calldataload\n        /* \"#utility.yul\":1003:1033   */\n      swap1\n      pop\n        /* \"#utility.yul\":1056:1074   */\n      0xffffffffffffffff\n        /* \"#utility.yul\":1048:1054   */\n      dup2\n        /* \"#utility.yul\":1045:1075   */\n      gt\n        /* \"#utility.yul\":1042:1159   */\n      iszero\n      tag_170\n      jumpi\n        /* \"#utility.yul\":1078:1157   */\n      tag_171\n      tag_123\n      jump\t// in\n    tag_171:\n        /* \"#utility.yul\":1042:1159   */\n    tag_170:\n        /* \"#utility.yul\":1192:1196   */\n      0x20\n        /* \"#utility.yul\":1184:1190   */\n      dup4\n        /* \"#utility.yul\":1180:1197   */\n      add\n        /* \"#utility.yul\":1168:1197   */\n      swap2\n      pop\n        /* \"#utility.yul\":1246:1249   */\n      dup4\n        /* \"#utility.yul\":1238:1242   */\n      0x40\n        /* \"#utility.yul\":1230:1236   */\n      dup3\n        /* \"#utility.yul\":1226:1243   */\n      mul\n        /* \"#utility.yul\":1216:1224   */\n      dup4\n        /* \"#utility.yul\":1212:1244   */\n      add\n        /* \"#utility.yul\":1209:1250   */\n      gt\n        /* \"#utility.yul\":1206:1334   */\n      iszero\n      tag_172\n      jumpi\n        /* \"#utility.yul\":1253:1332   */\n      tag_173\n      tag_124\n      jump\t// in\n    tag_173:\n        /* \"#utility.yul\":1206:1334   */\n    tag_172:\n        /* \"#utility.yul\":743:1340   */\n      swap3\n      pop\n      swap3\n      swap1\n      pop\n      jump\t// out\n        /* \"#utility.yul\":1346:1963   */\n    tag_7:\n        /* \"#utility.yul\":1461:1467   */\n      0x00\n        /* \"#utility.yul\":1469:1475   */\n      0x00\n        /* \"#utility.yul\":1518:1520   */\n      0x20\n        /* \"#utility.yul\":1506:1515   */\n      dup4\n        /* \"#utility.yul\":1497:1504   */\n      dup6\n        /* \"#utility.yul\":1493:1516   */\n      sub\n        /* \"#utility.yul\":1489:1521   */\n      slt\n        /* \"#utility.yul\":1486:1605   */\n      iszero\n      tag_175\n      jumpi\n        /* \"#utility.yul\":1524:1603   */\n      tag_176\n      tag_120\n      jump\t// in\n    tag_176:\n        /* \"#utility.yul\":1486:1605   */\n    tag_175:\n        /* \"#utility.yul\":1672:1673   */\n      0x00\n        /* \"#utility.yul\":1661:1670   */\n      dup4\n        /* \"#utility.yul\":1657:1674   */\n      add\n        /* \"#utility.yul\":1644:1675   */\n      calldataload\n        /* \"#utility.yul\":1702:1720   */\n      0xffffffffffffffff\n        /* \"#utility.yul\":1694:1700   */\n      dup2\n        /* \"#utility.yul\":1691:1721   */\n      gt\n        /* \"#utility.yul\":1688:1805   */\n      iszero\n      tag_177\n      jumpi\n        /* \"#utility.yul\":1724:1803   */\n      tag_178\n      tag_121\n      jump\t// in\n    tag_178:\n        /* \"#utility.yul\":1688:1805   */\n    tag_177:\n        /* \"#utility.yul\":1837:1946   */\n      tag_179\n        /* \"#utility.yul\":1938:1945   */\n      dup6\n        /* \"#utility.yul\":1929:1935   */\n      dup3\n        /* \"#utility.yul\":1918:1927   */\n      dup7\n        /* \"#utility.yul\":1914:1936   */\n      add\n        /* \"#utility.yul\":1837:1946   */\n      tag_125\n      jump\t// in\n    tag_179:\n        /* \"#utility.yul\":1819:1946   */\n      swap3\n      pop\n      swap3\n      pop\n        /* \"#utility.yul\":1615:1956   */\n      pop\n        /* \"#utility.yul\":1346:1963   */\n      swap3\n      pop\n      swap3\n      swap1\n      pop\n      jump\t// out\n        /* \"#utility.yul\":2007:2602   */\n    tag_126:\n        /* \"#utility.yul\":2107:2115   */\n      0x00\n        /* \"#utility.yul\":2117:2123   */\n      0x00\n        /* \"#utility.yul\":2167:2170   */\n      dup4\n        /* \"#utility.yul\":2160:2164   */\n      0x1f\n        /* \"#utility.yul\":2152:2158   */\n      dup5\n        /* \"#utility.yul\":2148:2165   */\n      add\n        /* \"#utility.yul\":2144:2171   */\n      slt\n        /* \"#utility.yul\":2134:2256   */\n      tag_181\n      jumpi\n        /* \"#utility.yul\":2175:2254   */\n      tag_182\n      tag_122\n      jump\t// in\n    tag_182:\n        /* \"#utility.yul\":2134:2256   */\n    tag_181:\n        /* \"#utility.yul\":2288:2294   */\n      dup3\n        /* \"#utility.yul\":2275:2295   */\n      calldataload\n        /* \"#utility.yul\":2265:2295   */\n      swap1\n      pop\n        /* \"#utility.yul\":2318:2336   */\n      0xffffffffffffffff\n        /* \"#utility.yul\":2310:2316   */\n      dup2\n        /* \"#utility.yul\":2307:2337   */\n      gt\n        /* \"#utility.yul\":2304:2421   */\n      iszero\n      tag_183\n      jumpi\n        /* \"#utility.yul\":2340:2419   */\n      tag_184\n      tag_123\n      jump\t// in\n    tag_184:\n        /* \"#utility.yul\":2304:2421   */\n    tag_183:\n        /* \"#utility.yul\":2454:2458   */\n      0x20\n        /* \"#utility.yul\":2446:2452   */\n      dup4\n        /* \"#utility.yul\":2442:2459   */\n      add\n        /* \"#utility.yul\":2430:2459   */\n      swap2\n      pop\n        /* \"#utility.yul\":2508:2511   */\n      dup4\n        /* \"#utility.yul\":2500:2504   */\n      0x80\n        /* \"#utility.yul\":2492:2498   */\n      dup3\n        /* \"#utility.yul\":2488:2505   */\n      mul\n        /* \"#utility.yul\":2478:2486   */\n      dup4\n        /* \"#utility.yul\":2474:2506   */\n      add\n        /* \"#utility.yul\":2471:2512   */\n      gt\n        /* \"#utility.yul\":2468:2596   */\n      iszero\n      tag_185\n      jumpi\n        /* \"#utility.yul\":2515:2594   */\n      tag_186\n      tag_124\n      jump\t// in\n    tag_186:\n        /* \"#utility.yul\":2468:2596   */\n    tag_185:\n        /* \"#utility.yul\":2007:2602   */\n      swap3\n      pop\n      swap3\n      swap1\n      pop\n      jump\t// out\n        /* \"#utility.yul\":2608:2734   */\n    tag_127:\n        /* \"#utility.yul\":2645:2652   */\n      0x00\n        /* \"#utility.yul\":2685:2727   */\n      0xffffffffffffffffffffffffffffffffffffffff\n        /* \"#utility.yul\":2678:2683   */\n      dup3\n        /* \"#utility.yul\":2674:2728   */\n      and\n        /* \"#utility.yul\":2663:2728   */\n      swap1\n      pop\n        /* \"#utility.yul\":2608:2734   */\n      swap2\n      swap1\n      pop\n      jump\t// out\n        /* \"#utility.yul\":2740:2836   */\n    tag_128:\n        /* \"#utility.yul\":2777:2784   */\n      0x00\n        /* \"#utility.yul\":2806:2830   */\n      tag_189\n        /* \"#utility.yul\":2824:2829   */\n      dup3\n        /* \"#utility.yul\":2806:2830   */\n      tag_127\n      jump\t// in\n    tag_189:\n        /* \"#utility.yul\":2795:2830   */\n      swap1\n      pop\n        /* \"#utility.yul\":2740:2836   */\n      swap2\n      swap1\n      pop\n      jump\t// out\n        /* \"#utility.yul\":2842:2952   */\n    tag_129:\n        /* \"#utility.yul\":2893:2900   */\n      0x00\n        /* \"#utility.yul\":2922:2946   */\n      tag_191\n        /* \"#utility.yul\":2940:2945   */\n      dup3\n        /* \"#utility.yul\":2922:2946   */\n      tag_128\n      jump\t// in\n    tag_191:\n        /* \"#utility.yul\":2911:2946   */\n      swap1\n      pop\n        /* \"#utility.yul\":2842:2952   */\n      swap2\n      swap1\n      pop\n      jump\t// out\n        /* \"#utility.yul\":2958:3108   */\n    tag_130:\n        /* \"#utility.yul\":3045:3083   */\n      tag_193\n        /* \"#utility.yul\":3077:3082   */\n      dup2\n        /* \"#utility.yul\":3045:3083   */\n      tag_129\n      jump\t// in\n    tag_193:\n        /* \"#utility.yul\":3038:3043   */\n      dup2\n        /* \"#utility.yul\":3035:3084   */\n      eq\n        /* \"#utility.yul\":3025:3102   */\n      tag_194\n      jumpi\n        /* \"#utility.yul\":3098:3099   */\n      0x00\n        /* \"#utility.yul\":3095:3096   */\n      0x00\n        /* \"#utility.yul\":3088:3100   */\n      revert\n        /* \"#utility.yul\":3025:3102   */\n    tag_194:\n        /* \"#utility.yul\":2958:3108   */\n      pop\n      jump\t// out\n        /* \"#utility.yul\":3114:3281   */\n    tag_131:\n        /* \"#utility.yul\":3174:3179   */\n      0x00\n        /* \"#utility.yul\":3212:3218   */\n      dup2\n        /* \"#utility.yul\":3199:3219   */\n      calldataload\n        /* \"#utility.yul\":3190:3219   */\n      swap1\n      pop\n        /* \"#utility.yul\":3228:3275   */\n      tag_196\n        /* \"#utility.yul\":3269:3274   */\n      dup2\n        /* \"#utility.yul\":3228:3275   */\n      tag_130\n      jump\t// in\n    tag_196:\n        /* \"#utility.yul\":3114:3281   */\n      swap3\n      swap2\n      pop\n      pop\n      jump\t// out\n        /* \"#utility.yul\":3287:4073   */\n    tag_11:\n        /* \"#utility.yul\":3423:3429   */\n      0x00\n        /* \"#utility.yul\":3431:3437   */\n      0x00\n        /* \"#utility.yul\":3439:3445   */\n      0x00\n        /* \"#utility.yul\":3488:3490   */\n      0x40\n        /* \"#utility.yul\":3476:3485   */\n      dup5\n        /* \"#utility.yul\":3467:3474   */\n      dup7\n        /* \"#utility.yul\":3463:3486   */\n      sub\n        /* \"#utility.yul\":3459:3491   */\n      slt\n        /* \"#utility.yul\":3456:3575   */\n      iszero\n      tag_198\n      jumpi\n        /* \"#utility.yul\":3494:3573   */\n      tag_199\n      tag_120\n      jump\t// in\n    tag_199:\n        /* \"#utility.yul\":3456:3575   */\n    tag_198:\n        /* \"#utility.yul\":3642:3643   */\n      0x00\n        /* \"#utility.yul\":3631:3640   */\n      dup5\n        /* \"#utility.yul\":3627:3644   */\n      add\n        /* \"#utility.yul\":3614:3645   */\n      calldataload\n        /* \"#utility.yul\":3672:3690   */\n      0xffffffffffffffff\n        /* \"#utility.yul\":3664:3670   */\n      dup2\n        /* \"#utility.yul\":3661:3691   */\n      gt\n        /* \"#utility.yul\":3658:3775   */\n      iszero\n      tag_200\n      jumpi\n        /* \"#utility.yul\":3694:3773   */\n      tag_201\n      tag_121\n      jump\t// in\n    tag_201:\n        /* \"#utility.yul\":3658:3775   */\n    tag_200:\n        /* \"#utility.yul\":3807:3914   */\n      tag_202\n        /* \"#utility.yul\":3906:3913   */\n      dup7\n        /* \"#utility.yul\":3897:3903   */\n      dup3\n        /* \"#utility.yul\":3886:3895   */\n      dup8\n        /* \"#utility.yul\":3882:3904   */\n      add\n        /* \"#utility.yul\":3807:3914   */\n      tag_126\n      jump\t// in\n    tag_202:\n        /* \"#utility.yul\":3789:3914   */\n      swap4\n      pop\n      swap4\n      pop\n        /* \"#utility.yul\":3585:3924   */\n      pop\n        /* \"#utility.yul\":3963:3965   */\n      0x20\n        /* \"#utility.yul\":3989:4056   */\n      tag_203\n        /* \"#utility.yul\":4048:4055   */\n      dup7\n        /* \"#utility.yul\":4039:4045   */\n      dup3\n        /* \"#utility.yul\":4028:4037   */\n      dup8\n        /* \"#utility.yul\":4024:4046   */\n      add\n        /* \"#utility.yul\":3989:4056   */\n      tag_131\n      jump\t// in\n    tag_203:\n        /* \"#utility.yul\":3979:4056   */\n      swap2\n      pop\n        /* \"#utility.yul\":3934:4066   */\n      pop\n        /* \"#utility.yul\":3287:4073   */\n      swap3\n      pop\n      swap3\n      pop\n      swap3\n      jump\t// out\n        /* \"#utility.yul\":4079:4248   */\n    tag_132:\n        /* \"#utility.yul\":4163:4174   */\n      0x00\n        /* \"#utility.yul\":4197:4203   */\n      dup3\n        /* \"#utility.yul\":4192:4195   */\n      dup3\n        /* \"#utility.yul\":4185:4204   */\n      mstore\n        /* \"#utility.yul\":4237:4241   */\n      0x20\n        /* \"#utility.yul\":4232:4235   */\n      dup3\n        /* \"#utility.yul\":4228:4242   */\n      add\n        /* \"#utility.yul\":4213:4242   */\n      swap1\n      pop\n        /* \"#utility.yul\":4079:4248   */\n      swap3\n      swap2\n      pop\n      pop\n      jump\t// out\n        /* \"#utility.yul\":4254:4422   */\n    tag_133:\n        /* \"#utility.yul\":4394:4414   */\n      0x4e6f20636c61696d732070726f76696465640000000000000000000000000000\n        /* \"#utility.yul\":4390:4391   */\n      0x00\n        /* \"#utility.yul\":4382:4388   */\n      dup3\n        /* \"#utility.yul\":4378:4392   */\n      add\n        /* \"#utility.yul\":4371:4415   */\n      mstore\n        /* \"#utility.yul\":4254:4422   */\n      pop\n      jump\t// out\n        /* \"#utility.yul\":4428:4794   */\n    tag_134:\n        /* \"#utility.yul\":4570:4573   */\n      0x00\n        /* \"#utility.yul\":4591:4658   */\n      tag_207\n        /* \"#utility.yul\":4655:4657   */\n      0x12\n        /* \"#utility.yul\":4650:4653   */\n      dup4\n        /* \"#utility.yul\":4591:4658   */\n      tag_132\n      jump\t// in\n    tag_207:\n        /* \"#utility.yul\":4584:4658   */\n      swap2\n      pop\n        /* \"#utility.yul\":4667:4760   */\n      tag_208\n        /* \"#utility.yul\":4756:4759   */\n      dup3\n        /* \"#utility.yul\":4667:4760   */\n      tag_133\n      jump\t// in\n    tag_208:\n        /* \"#utility.yul\":4785:4787   */\n      0x20\n        /* \"#utility.yul\":4780:4783   */\n      dup3\n        /* \"#utility.yul\":4776:4788   */\n      add\n        /* \"#utility.yul\":4769:4788   */\n      swap1\n      pop\n        /* \"#utility.yul\":4428:4794   */\n      swap2\n      swap1\n      pop\n      jump\t// out\n        /* \"#utility.yul\":4800:5219   */\n    tag_19:\n        /* \"#utility.yul\":4966:4970   */\n      0x00\n        /* \"#utility.yul\":5004:5006   */\n      0x20\n        /* \"#utility.yul\":4993:5002   */\n      dup3\n        /* \"#utility.yul\":4989:5007   */\n      add\n        /* \"#utility.yul\":4981:5007   */\n      swap1\n      pop\n        /* \"#utility.yul\":5053:5062   */\n      dup2\n        /* \"#utility.yul\":5047:5051   */\n      dup2\n        /* \"#utility.yul\":5043:5063   */\n      sub\n        /* \"#utility.yul\":5039:5040   */\n      0x00\n        /* \"#utility.yul\":5028:5037   */\n      dup4\n        /* \"#utility.yul\":5024:5041   */\n      add\n        /* \"#utility.yul\":5017:5064   */\n      mstore\n        /* \"#utility.yul\":5081:5212   */\n      tag_210\n        /* \"#utility.yul\":5207:5211   */\n      dup2\n        /* \"#utility.yul\":5081:5212   */\n      tag_134\n      jump\t// in\n    tag_210:\n        /* \"#utility.yul\":5073:5212   */\n      swap1\n      pop\n        /* \"#utility.yul\":4800:5219   */\n      swap2\n      swap1\n      pop\n      jump\t// out\n        /* \"#utility.yul\":5225:5405   */\n    tag_25:\n        /* \"#utility.yul\":5273:5350   */\n      0x4e487b7100000000000000000000000000000000000000000000000000000000\n        /* \"#utility.yul\":5270:5271   */\n      0x00\n        /* \"#utility.yul\":5263:5351   */\n      mstore\n        /* \"#utility.yul\":5370:5374   */\n      0x32\n        /* \"#utility.yul\":5367:5368   */\n      0x04\n        /* \"#utility.yul\":5360:5375   */\n      mstore\n        /* \"#utility.yul\":5394:5398   */\n      0x24\n        /* \"#utility.yul\":5391:5392   */\n      0x00\n        /* \"#utility.yul\":5384:5399   */\n      revert\n        /* \"#utility.yul\":5411:5528   */\n    tag_135:\n        /* \"#utility.yul\":5520:5521   */\n      0x00\n        /* \"#utility.yul\":5517:5518   */\n      0x00\n        /* \"#utility.yul\":5510:5522   */\n      revert\n        /* \"#utility.yul\":5534:5636   */\n    tag_136:\n        /* \"#utility.yul\":5575:5581   */\n      0x00\n        /* \"#utility.yul\":5626:5628   */\n      0x1f\n        /* \"#utility.yul\":5622:5629   */\n      not\n        /* \"#utility.yul\":5617:5619   */\n      0x1f\n        /* \"#utility.yul\":5610:5615   */\n      dup4\n        /* \"#utility.yul\":5606:5620   */\n      add\n        /* \"#utility.yul\":5602:5630   */\n      and\n        /* \"#utility.yul\":5592:5630   */\n      swap1\n      pop\n        /* \"#utility.yul\":5534:5636   */\n      swap2\n      swap1\n      pop\n      jump\t// out\n        /* \"#utility.yul\":5642:5822   */\n    tag_137:\n        /* \"#utility.yul\":5690:5767   */\n      0x4e487b7100000000000000000000000000000000000000000000000000000000\n        /* \"#utility.yul\":5687:5688   */\n      0x00\n        /* \"#utility.yul\":5680:5768   */\n      mstore\n        /* \"#utility.yul\":5787:5791   */\n      0x41\n        /* \"#utility.yul\":5784:5785   */\n      0x04\n        /* \"#utility.yul\":5777:5792   */\n      mstore\n        /* \"#utility.yul\":5811:5815   */\n      0x24\n        /* \"#utility.yul\":5808:5809   */\n      0x00\n        /* \"#utility.yul\":5801:5816   */\n      revert\n        /* \"#utility.yul\":5828:6109   */\n    tag_138:\n        /* \"#utility.yul\":5911:5938   */\n      tag_216\n        /* \"#utility.yul\":5933:5937   */\n      dup3\n        /* \"#utility.yul\":5911:5938   */\n      tag_136\n      jump\t// in\n    tag_216:\n        /* \"#utility.yul\":5903:5909   */\n      dup2\n        /* \"#utility.yul\":5899:5939   */\n      add\n        /* \"#utility.yul\":6041:6047   */\n      dup2\n        /* \"#utility.yul\":6029:6039   */\n      dup2\n        /* \"#utility.yul\":6026:6048   */\n      lt\n        /* \"#utility.yul\":6005:6023   */\n      0xffffffffffffffff\n        /* \"#utility.yul\":5993:6003   */\n      dup3\n        /* \"#utility.yul\":5990:6024   */\n      gt\n        /* \"#utility.yul\":5987:6049   */\n      or\n        /* \"#utility.yul\":5984:6072   */\n      iszero\n      tag_217\n      jumpi\n        /* \"#utility.yul\":6052:6070   */\n      tag_218\n      tag_137\n      jump\t// in\n    tag_218:\n        /* \"#utility.yul\":5984:6072   */\n    tag_217:\n        /* \"#utility.yul\":6092:6102   */\n      dup1\n        /* \"#utility.yul\":6088:6090   */\n      0x40\n        /* \"#utility.yul\":6081:6103   */\n      mstore\n        /* \"#utility.yul\":5871:6109   */\n      pop\n        /* \"#utility.yul\":5828:6109   */\n      pop\n      pop\n      jump\t// out\n        /* \"#utility.yul\":6115:6244   */\n    tag_139:\n        /* \"#utility.yul\":6149:6155   */\n      0x00\n        /* \"#utility.yul\":6176:6196   */\n      tag_220\n      tag_119\n      jump\t// in\n    tag_220:\n        /* \"#utility.yul\":6166:6196   */\n      swap1\n      pop\n        /* \"#utility.yul\":6205:6238   */\n      tag_221\n        /* \"#utility.yul\":6233:6237   */\n      dup3\n        /* \"#utility.yul\":6225:6231   */\n      dup3\n        /* \"#utility.yul\":6205:6238   */\n      tag_138\n      jump\t// in\n    tag_221:\n        /* \"#utility.yul\":6115:6244   */\n      swap2\n      swap1\n      pop\n      jump\t// out\n        /* \"#utility.yul\":6373:6495   */\n    tag_141:\n        /* \"#utility.yul\":6446:6470   */\n      tag_224\n        /* \"#utility.yul\":6464:6469   */\n      dup2\n        /* \"#utility.yul\":6446:6470   */\n      tag_128\n      jump\t// in\n    tag_224:\n        /* \"#utility.yul\":6439:6444   */\n      dup2\n        /* \"#utility.yul\":6436:6471   */\n      eq\n        /* \"#utility.yul\":6426:6489   */\n      tag_225\n      jumpi\n        /* \"#utility.yul\":6485:6486   */\n      0x00\n        /* \"#utility.yul\":6482:6483   */\n      0x00\n        /* \"#utility.yul\":6475:6487   */\n      revert\n        /* \"#utility.yul\":6426:6489   */\n    tag_225:\n        /* \"#utility.yul\":6373:6495   */\n      pop\n      jump\t// out\n        /* \"#utility.yul\":6501:6640   */\n    tag_142:\n        /* \"#utility.yul\":6547:6552   */\n      0x00\n        /* \"#utility.yul\":6585:6591   */\n      dup2\n        /* \"#utility.yul\":6572:6592   */\n      calldataload\n        /* \"#utility.yul\":6563:6592   */\n      swap1\n      pop\n        /* \"#utility.yul\":6601:6634   */\n      tag_227\n        /* \"#utility.yul\":6628:6633   */\n      dup2\n        /* \"#utility.yul\":6601:6634   */\n      tag_141\n      jump\t// in\n    tag_227:\n        /* \"#utility.yul\":6501:6640   */\n      swap3\n      swap2\n      pop\n      pop\n      jump\t// out\n        /* \"#utility.yul\":6646:6723   */\n    tag_143:\n        /* \"#utility.yul\":6683:6690   */\n      0x00\n        /* \"#utility.yul\":6712:6717   */\n      dup2\n        /* \"#utility.yul\":6701:6717   */\n      swap1\n      pop\n        /* \"#utility.yul\":6646:6723   */\n      swap2\n      swap1\n      pop\n      jump\t// out\n        /* \"#utility.yul\":6729:6851   */\n    tag_144:\n        /* \"#utility.yul\":6802:6826   */\n      tag_230\n        /* \"#utility.yul\":6820:6825   */\n      dup2\n        /* \"#utility.yul\":6802:6826   */\n      tag_143\n      jump\t// in\n    tag_230:\n        /* \"#utility.yul\":6795:6800   */\n      dup2\n        /* \"#utility.yul\":6792:6827   */\n      eq\n        /* \"#utility.yul\":6782:6845   */\n      tag_231\n      jumpi\n        /* \"#utility.yul\":6841:6842   */\n      0x00\n        /* \"#utility.yul\":6838:6839   */\n      0x00\n        /* \"#utility.yul\":6831:6843   */\n      revert\n        /* \"#utility.yul\":6782:6845   */\n    tag_231:\n        /* \"#utility.yul\":6729:6851   */\n      pop\n      jump\t// out\n        /* \"#utility.yul\":6857:6996   */\n    tag_145:\n        /* \"#utility.yul\":6903:6908   */\n      0x00\n        /* \"#utility.yul\":6941:6947   */\n      dup2\n        /* \"#utility.yul\":6928:6948   */\n      calldataload\n        /* \"#utility.yul\":6919:6948   */\n      swap1\n      pop\n        /* \"#utility.yul\":6957:6990   */\n      tag_233\n        /* \"#utility.yul\":6984:6989   */\n      dup2\n        /* \"#utility.yul\":6957:6990   */\n      tag_144\n      jump\t// in\n    tag_233:\n        /* \"#utility.yul\":6857:6996   */\n      swap3\n      swap2\n      pop\n      pop\n      jump\t// out\n        /* \"#utility.yul\":7040:7622   */\n    tag_146:\n        /* \"#utility.yul\":7116:7121   */\n      0x00\n        /* \"#utility.yul\":7160:7164   */\n      0x40\n        /* \"#utility.yul\":7148:7157   */\n      dup3\n        /* \"#utility.yul\":7143:7146   */\n      dup5\n        /* \"#utility.yul\":7139:7158   */\n      sub\n        /* \"#utility.yul\":7135:7165   */\n      slt\n        /* \"#utility.yul\":7132:7249   */\n      iszero\n      tag_235\n      jumpi\n        /* \"#utility.yul\":7168:7247   */\n      tag_236\n      tag_135\n      jump\t// in\n    tag_236:\n        /* \"#utility.yul\":7132:7249   */\n    tag_235:\n        /* \"#utility.yul\":7267:7288   */\n      tag_237\n        /* \"#utility.yul\":7283:7287   */\n      0x40\n        /* \"#utility.yul\":7267:7288   */\n      tag_139\n      jump\t// in\n    tag_237:\n        /* \"#utility.yul\":7258:7288   */\n      swap1\n      pop\n        /* \"#utility.yul\":7349:7350   */\n      0x00\n        /* \"#utility.yul\":7389:7438   */\n      tag_238\n        /* \"#utility.yul\":7434:7437   */\n      dup5\n        /* \"#utility.yul\":7425:7431   */\n      dup3\n        /* \"#utility.yul\":7414:7423   */\n      dup6\n        /* \"#utility.yul\":7410:7432   */\n      add\n        /* \"#utility.yul\":7389:7438   */\n      tag_142\n      jump\t// in\n    tag_238:\n        /* \"#utility.yul\":7382:7386   */\n      0x00\n        /* \"#utility.yul\":7375:7380   */\n      dup4\n        /* \"#utility.yul\":7371:7387   */\n      add\n        /* \"#utility.yul\":7364:7439   */\n      mstore\n        /* \"#utility.yul\":7298:7450   */\n      pop\n        /* \"#utility.yul\":7513:7515   */\n      0x20\n        /* \"#utility.yul\":7554:7603   */\n      tag_239\n        /* \"#utility.yul\":7599:7602   */\n      dup5\n        /* \"#utility.yul\":7590:7596   */\n      dup3\n        /* \"#utility.yul\":7579:7588   */\n      dup6\n        /* \"#utility.yul\":7575:7597   */\n      add\n        /* \"#utility.yul\":7554:7603   */\n      tag_145\n      jump\t// in\n    tag_239:\n        /* \"#utility.yul\":7547:7551   */\n      0x20\n        /* \"#utility.yul\":7540:7545   */\n      dup4\n        /* \"#utility.yul\":7536:7552   */\n      add\n        /* \"#utility.yul\":7529:7604   */\n      mstore\n        /* \"#utility.yul\":7460:7615   */\n      pop\n        /* \"#utility.yul\":7040:7622   */\n      swap3\n      swap2\n      pop\n      pop\n      jump\t// out\n        /* \"#utility.yul\":7628:8011   */\n    tag_27:\n        /* \"#utility.yul\":7714:7720   */\n      0x00\n        /* \"#utility.yul\":7763:7765   */\n      0x40\n        /* \"#utility.yul\":7751:7760   */\n      dup3\n        /* \"#utility.yul\":7742:7749   */\n      dup5\n        /* \"#utility.yul\":7738:7761   */\n      sub\n        /* \"#utility.yul\":7734:7766   */\n      slt\n        /* \"#utility.yul\":7731:7850   */\n      iszero\n      tag_241\n      jumpi\n        /* \"#utility.yul\":7769:7848   */\n      tag_242\n      tag_120\n      jump\t// in\n    tag_242:\n        /* \"#utility.yul\":7731:7850   */\n    tag_241:\n        /* \"#utility.yul\":7889:7890   */\n      0x00\n        /* \"#utility.yul\":7914:7994   */\n      tag_243\n        /* \"#utility.yul\":7986:7993   */\n      dup5\n        /* \"#utility.yul\":7977:7983   */\n      dup3\n        /* \"#utility.yul\":7966:7975   */\n      dup6\n        /* \"#utility.yul\":7962:7984   */\n      add\n        /* \"#utility.yul\":7914:7994   */\n      tag_146\n      jump\t// in\n    tag_243:\n        /* \"#utility.yul\":7904:7994   */\n      swap2\n      pop\n        /* \"#utility.yul\":7860:8004   */\n      pop\n        /* \"#utility.yul\":7628:8011   */\n      swap3\n      swap2\n      pop\n      pop\n      jump\t// out\n        /* \"#utility.yul\":8017:8135   */\n    tag_147:\n        /* \"#utility.yul\":8104:8128   */\n      tag_245\n        /* \"#utility.yul\":8122:8127   */\n      dup2\n        /* \"#utility.yul\":8104:8128   */\n      tag_143\n      jump\t// in\n    tag_245:\n        /* \"#utility.yul\":8099:8102   */\n      dup3\n        /* \"#utility.yul\":8092:8129   */\n      mstore\n        /* \"#utility.yul\":8017:8135   */\n      pop\n      pop\n      jump\t// out\n        /* \"#utility.yul\":8141:8363   */\n    tag_29:\n        /* \"#utility.yul\":8234:8238   */\n      0x00\n        /* \"#utility.yul\":8272:8274   */\n      0x20\n        /* \"#utility.yul\":8261:8270   */\n      dup3\n        /* \"#utility.yul\":8257:8275   */\n      add\n        /* \"#utility.yul\":8249:8275   */\n      swap1\n      pop\n        /* \"#utility.yul\":8285:8356   */\n      tag_247\n        /* \"#utility.yul\":8353:8354   */\n      0x00\n        /* \"#utility.yul\":8342:8351   */\n      dup4\n        /* \"#utility.yul\":8338:8355   */\n      add\n        /* \"#utility.yul\":8329:8335   */\n      dup5\n        /* \"#utility.yul\":8285:8356   */\n      tag_147\n      jump\t// in\n    tag_247:\n        /* \"#utility.yul\":8141:8363   */\n      swap3\n      swap2\n      pop\n      pop\n      jump\t// out\n        /* \"#utility.yul\":8369:8512   */\n    tag_148:\n        /* \"#utility.yul\":8426:8431   */\n      0x00\n        /* \"#utility.yul\":8457:8463   */\n      dup2\n        /* \"#utility.yul\":8451:8464   */\n      mload\n        /* \"#utility.yul\":8442:8464   */\n      swap1\n      pop\n        /* \"#utility.yul\":8473:8506   */\n      tag_249\n        /* \"#utility.yul\":8500:8505   */\n      dup2\n        /* \"#utility.yul\":8473:8506   */\n      tag_144\n      jump\t// in\n    tag_249:\n        /* \"#utility.yul\":8369:8512   */\n      swap3\n      swap2\n      pop\n      pop\n      jump\t// out\n        /* \"#utility.yul\":8518:8869   */\n    tag_32:\n        /* \"#utility.yul\":8588:8594   */\n      0x00\n        /* \"#utility.yul\":8637:8639   */\n      0x20\n        /* \"#utility.yul\":8625:8634   */\n      dup3\n        /* \"#utility.yul\":8616:8623   */\n      dup5\n        /* \"#utility.yul\":8612:8635   */\n      sub\n        /* \"#utility.yul\":8608:8640   */\n      slt\n        /* \"#utility.yul\":8605:8724   */\n      iszero\n      tag_251\n      jumpi\n        /* \"#utility.yul\":8643:8722   */\n      tag_252\n      tag_120\n      jump\t// in\n    tag_252:\n        /* \"#utility.yul\":8605:8724   */\n    tag_251:\n        /* \"#utility.yul\":8763:8764   */\n      0x00\n        /* \"#utility.yul\":8788:8852   */\n      tag_253\n        /* \"#utility.yul\":8844:8851   */\n      dup5\n        /* \"#utility.yul\":8835:8841   */\n      dup3\n        /* \"#utility.yul\":8824:8833   */\n      dup6\n        /* \"#utility.yul\":8820:8842   */\n      add\n        /* \"#utility.yul\":8788:8852   */\n      tag_148\n      jump\t// in\n    tag_253:\n        /* \"#utility.yul\":8778:8852   */\n      swap2\n      pop\n        /* \"#utility.yul\":8734:8862   */\n      pop\n        /* \"#utility.yul\":8518:8869   */\n      swap3\n      swap2\n      pop\n      pop\n      jump\t// out\n        /* \"#utility.yul\":8875:9055   */\n    tag_149:\n        /* \"#utility.yul\":8923:9000   */\n      0x4e487b7100000000000000000000000000000000000000000000000000000000\n        /* \"#utility.yul\":8920:8921   */\n      0x00\n        /* \"#utility.yul\":8913:9001   */\n      mstore\n        /* \"#utility.yul\":9020:9024   */\n      0x11\n        /* \"#utility.yul\":9017:9018   */\n      0x04\n        /* \"#utility.yul\":9010:9025   */\n      mstore\n        /* \"#utility.yul\":9044:9048   */\n      0x24\n        /* \"#utility.yul\":9041:9042   */\n      0x00\n        /* \"#utility.yul\":9034:9049   */\n      revert\n        /* \"#utility.yul\":9061:9252   */\n    tag_39:\n        /* \"#utility.yul\":9101:9104   */\n      0x00\n        /* \"#utility.yul\":9120:9140   */\n      tag_256\n        /* \"#utility.yul\":9138:9139   */\n      dup3\n        /* \"#utility.yul\":9120:9140   */\n      tag_143\n      jump\t// in\n    tag_256:\n        /* \"#utility.yul\":9115:9140   */\n      swap2\n      pop\n        /* \"#utility.yul\":9154:9174   */\n      tag_257\n        /* \"#utility.yul\":9172:9173   */\n      dup4\n        /* \"#utility.yul\":9154:9174   */\n      tag_143\n      jump\t// in\n    tag_257:\n        /* \"#utility.yul\":9149:9174   */\n      swap3\n      pop\n        /* \"#utility.yul\":9197:9198   */\n      dup3\n        /* \"#utility.yul\":9194:9195   */\n      dup3\n        /* \"#utility.yul\":9190:9199   */\n      add\n        /* \"#utility.yul\":9183:9199   */\n      swap1\n      pop\n        /* \"#utility.yul\":9218:9221   */\n      dup1\n        /* \"#utility.yul\":9215:9216   */\n      dup3\n        /* \"#utility.yul\":9212:9222   */\n      gt\n        /* \"#utility.yul\":9209:9245   */\n      iszero\n      tag_258\n      jumpi\n        /* \"#utility.yul\":9225:9243   */\n      tag_259\n      tag_149\n      jump\t// in\n    tag_259:\n        /* \"#utility.yul\":9209:9245   */\n    tag_258:\n        /* \"#utility.yul\":9061:9252   */\n      swap3\n      swap2\n      pop\n      pop\n      jump\t// out\n        /* \"#utility.yul\":9258:9491   */\n    tag_41:\n        /* \"#utility.yul\":9297:9300   */\n      0x00\n        /* \"#utility.yul\":9320:9344   */\n      tag_261\n        /* \"#utility.yul\":9338:9343   */\n      dup3\n        /* \"#utility.yul\":9320:9344   */\n      tag_143\n      jump\t// in\n    tag_261:\n        /* \"#utility.yul\":9311:9344   */\n      swap2\n      pop\n        /* \"#utility.yul\":9366:9432   */\n      0xffffffffffffffffffffffffffffffffffffffffffffffffffffffffffffffff\n        /* \"#utility.yul\":9359:9364   */\n      dup3\n        /* \"#utility.yul\":9356:9433   */\n      sub\n        /* \"#utility.yul\":9353:9456   */\n      tag_262\n      jumpi\n        /* \"#utility.yul\":9436:9454   */\n      tag_263\n      tag_149\n      jump\t// in\n    tag_263:\n        /* \"#utility.yul\":9353:9456   */\n    tag_262:\n        /* \"#utility.yul\":9483:9484   */\n      0x01\n        /* \"#utility.yul\":9476:9481   */\n      dup3\n        /* \"#utility.yul\":9472:9485   */\n      add\n        /* \"#utility.yul\":9465:9485   */\n      swap1\n      pop\n        /* \"#utility.yul\":9258:9491   */\n      swap2\n      swap1\n      pop\n      jump\t// out\n        /* \"#utility.yul\":9497:9829   */\n    tag_43:\n        /* \"#utility.yul\":9618:9622   */\n      0x00\n        /* \"#utility.yul\":9656:9658   */\n      0x40\n        /* \"#utility.yul\":9645:9654   */\n      dup3\n        /* \"#utility.yul\":9641:9659   */\n      add\n        /* \"#utility.yul\":9633:9659   */\n      swap1\n      pop\n        /* \"#utility.yul\":9669:9740   */\n      tag_265\n        /* \"#utility.yul\":9737:9738   */\n      0x00\n        /* \"#utility.yul\":9726:9735   */\n      dup4\n        /* \"#utility.yul\":9722:9739   */\n      add\n        /* \"#utility.yul\":9713:9719   */\n      dup6\n        /* \"#utility.yul\":9669:9740   */\n      tag_147\n      jump\t// in\n    tag_265:\n        /* \"#utility.yul\":9750:9822   */\n      tag_266\n        /* \"#utility.yul\":9818:9820   */\n      0x20\n        /* \"#utility.yul\":9807:9816   */\n      dup4\n        /* \"#utility.yul\":9803:9821   */\n      add\n        /* \"#utility.yul\":9794:9800   */\n      dup5\n        /* \"#utility.yul\":9750:9822   */\n      tag_147\n      jump\t// in\n    tag_266:\n        /* \"#utility.yul\":9497:9829   */\n      swap4\n      swap3\n      pop\n      pop\n      pop\n      jump\t// out\n        /* \"#utility.yul\":9835:10001   */\n    tag_150:\n        /* \"#utility.yul\":9975:9993   */\n      0x4e6f20626574732070726f766964656400000000000000000000000000000000\n        /* \"#utility.yul\":9971:9972   */\n      0x00\n        /* \"#utility.yul\":9963:9969   */\n      dup3\n        /* \"#utility.yul\":9959:9973   */\n      add\n        /* \"#utility.yul\":9952:9994   */\n      mstore\n        /* \"#utility.yul\":9835:10001   */\n      pop\n      jump\t// out\n        /* \"#utility.yul\":10007:10373   */\n    tag_151:\n        /* \"#utility.yul\":10149:10152   */\n      0x00\n        /* \"#utility.yul\":10170:10237   */\n      tag_269\n        /* \"#utility.yul\":10234:10236   */\n      0x10\n        /* \"#utility.yul\":10229:10232   */\n      dup4\n        /* \"#utility.yul\":10170:10237   */\n      tag_132\n      jump\t// in\n    tag_269:\n        /* \"#utility.yul\":10163:10237   */\n      swap2\n      pop\n        /* \"#utility.yul\":10246:10339   */\n      tag_270\n        /* \"#utility.yul\":10335:10338   */\n      dup3\n        /* \"#utility.yul\":10246:10339   */\n      tag_150\n      jump\t// in\n    tag_270:\n        /* \"#utility.yul\":10364:10366   */\n      0x20\n        /* \"#utility.yul\":10359:10362   */\n      dup3\n        /* \"#utility.yul\":10355:10367   */\n      add\n        /* \"#utility.yul\":10348:10367   */\n      swap1\n      pop\n        /* \"#utility.yul\":10007:10373   */\n      swap2\n      swap1\n      pop\n      jump\t// out\n        /* \"#utility.yul\":10379:10798   */\n    tag_51:\n        /* \"#utility.yul\":10545:10549   */\n      0x00\n        /* \"#utility.yul\":10583:10585   */\n      0x20\n        /* \"#utility.yul\":10572:10581   */\n      dup3\n        /* \"#utility.yul\":10568:10586   */\n      add\n        /* \"#utility.yul\":10560:10586   */\n      swap1\n      pop\n        /* \"#utility.yul\":10632:10641   */\n      dup2\n        /* \"#utility.yul\":10626:10630   */\n      dup2\n        /* \"#utility.yul\":10622:10642   */\n      sub\n        /* \"#utility.yul\":10618:10619   */\n      0x00\n        /* \"#utility.yul\":10607:10616   */\n      dup4\n        /* \"#utility.yul\":10603:10620   */\n      add\n        /* \"#utility.yul\":10596:10643   */\n      mstore\n        /* \"#utility.yul\":10660:10791   */\n      tag_272\n        /* \"#utility.yul\":10786:10790   */\n      dup2\n        /* \"#utility.yul\":10660:10791   */\n      tag_151\n      jump\t// in\n    tag_272:\n        /* \"#utility.yul\":10652:10791   */\n      swap1\n      pop\n        /* \"#utility.yul\":10379:10798   */\n      swap2\n      swap1\n      pop\n      jump\t// out\n        /* \"#utility.yul\":10840:11747   */\n    tag_152:\n        /* \"#utility.yul\":10914:10919   */\n      0x00\n        /* \"#utility.yul\":10958:10962   */\n      0x80\n        /* \"#utility.yul\":10946:10955   */\n      dup3\n        /* \"#utility.yul\":10941:10944   */\n      dup5\n        /* \"#utility.yul\":10937:10956   */\n      sub\n        /* \"#utility.yul\":10933:10963   */\n      slt\n        /* \"#utility.yul\":10930:11047   */\n      iszero\n      tag_274\n      jumpi\n        /* \"#utility.yul\":10966:11045   */\n      tag_275\n      tag_135\n      jump\t// in\n    tag_275:\n        /* \"#utility.yul\":10930:11047   */\n    tag_274:\n        /* \"#utility.yul\":11065:11086   */\n      tag_276\n        /* \"#utility.yul\":11081:11085   */\n      0x80\n        /* \"#utility.yul\":11065:11086   */\n      tag_139\n      jump\t// in\n    tag_276:\n        /* \"#utility.yul\":11056:11086   */\n      swap1\n      pop\n        /* \"#utility.yul\":11147:11148   */\n      0x00\n        /* \"#utility.yul\":11187:11236   */\n      tag_277\n        /* \"#utility.yul\":11232:11235   */\n      dup5\n        /* \"#utility.yul\":11223:11229   */\n      dup3\n        /* \"#utility.yul\":11212:11221   */\n      dup6\n        /* \"#utility.yul\":11208:11230   */\n      add\n        /* \"#utility.yul\":11187:11236   */\n      tag_142\n      jump\t// in\n    tag_277:\n        /* \"#utility.yul\":11180:11184   */\n      0x00\n        /* \"#utility.yul\":11173:11178   */\n      dup4\n        /* \"#utility.yul\":11169:11185   */\n      add\n        /* \"#utility.yul\":11162:11237   */\n      mstore\n        /* \"#utility.yul\":11096:11248   */\n      pop\n        /* \"#utility.yul\":11311:11313   */\n      0x20\n        /* \"#utility.yul\":11352:11401   */\n      tag_278\n        /* \"#utility.yul\":11397:11400   */\n      dup5\n        /* \"#utility.yul\":11388:11394   */\n      dup3\n        /* \"#utility.yul\":11377:11386   */\n      dup6\n        /* \"#utility.yul\":11373:11395   */\n      add\n        /* \"#utility.yul\":11352:11401   */\n      tag_145\n      jump\t// in\n    tag_278:\n        /* \"#utility.yul\":11345:11349   */\n      0x20\n        /* \"#utility.yul\":11338:11343   */\n      dup4\n        /* \"#utility.yul\":11334:11350   */\n      add\n        /* \"#utility.yul\":11327:11402   */\n      mstore\n        /* \"#utility.yul\":11258:11413   */\n      pop\n        /* \"#utility.yul\":11475:11477   */\n      0x40\n        /* \"#utility.yul\":11516:11565   */\n      tag_279\n        /* \"#utility.yul\":11561:11564   */\n      dup5\n        /* \"#utility.yul\":11552:11558   */\n      dup3\n        /* \"#utility.yul\":11541:11550   */\n      dup6\n        /* \"#utility.yul\":11537:11559   */\n      add\n        /* \"#utility.yul\":11516:11565   */\n      tag_145\n      jump\t// in\n    tag_279:\n        /* \"#utility.yul\":11509:11513   */\n      0x40\n        /* \"#utility.yul\":11502:11507   */\n      dup4\n        /* \"#utility.yul\":11498:11514   */\n      add\n        /* \"#utility.yul\":11491:11566   */\n      mstore\n        /* \"#utility.yul\":11423:11577   */\n      pop\n        /* \"#utility.yul\":11638:11640   */\n      0x60\n        /* \"#utility.yul\":11679:11728   */\n      tag_280\n        /* \"#utility.yul\":11724:11727   */\n      dup5\n        /* \"#utility.yul\":11715:11721   */\n      dup3\n        /* \"#utility.yul\":11704:11713   */\n      dup6\n        /* \"#utility.yul\":11700:11722   */\n      add\n        /* \"#utility.yul\":11679:11728   */\n      tag_145\n      jump\t// in\n    tag_280:\n        /* \"#utility.yul\":11672:11676   */\n      0x60\n        /* \"#utility.yul\":11665:11670   */\n      dup4\n        /* \"#utility.yul\":11661:11677   */\n      add\n        /* \"#utility.yul\":11654:11729   */\n      mstore\n        /* \"#utility.yul\":11587:11740   */\n      pop\n        /* \"#utility.yul\":10840:11747   */\n      swap3\n      swap2\n      pop\n      pop\n      jump\t// out\n        /* \"#utility.yul\":11753:12133   */\n    tag_66:\n        /* \"#utility.yul\":11837:11843   */\n      0x00\n        /* \"#utility.yul\":11886:11889   */\n      0x80\n        /* \"#utility.yul\":11874:11883   */\n      dup3\n        /* \"#utility.yul\":11865:11872   */\n      dup5\n        /* \"#utility.yul\":11861:11884   */\n      sub\n        /* \"#utility.yul\":11857:11890   */\n      slt\n        /* \"#utility.yul\":11854:11974   */\n      iszero\n      tag_282\n      jumpi\n        /* \"#utility.yul\":11893:11972   */\n      tag_283\n      tag_120\n      jump\t// in\n    tag_283:\n        /* \"#utility.yul\":11854:11974   */\n    tag_282:\n        /* \"#utility.yul\":12013:12014   */\n      0x00\n        /* \"#utility.yul\":12038:12116   */\n      tag_284\n        /* \"#utility.yul\":12108:12115   */\n      dup5\n        /* \"#utility.yul\":12099:12105   */\n      dup3\n        /* \"#utility.yul\":12088:12097   */\n      dup6\n        /* \"#utility.yul\":12084:12106   */\n      add\n        /* \"#utility.yul\":12038:12116   */\n      tag_152\n      jump\t// in\n    tag_284:\n        /* \"#utility.yul\":12028:12116   */\n      swap2\n      pop\n        /* \"#utility.yul\":11984:12126   */\n      pop\n        /* \"#utility.yul\":11753:12133   */\n      swap3\n      swap2\n      pop\n      pop\n      jump\t// out\n        /* \"#utility.yul\":12139:12581   */\n    tag_70:\n        /* \"#utility.yul\":12288:12292   */\n      0x00\n        /* \"#utility.yul\":12326:12328   */\n      0x60\n        /* \"#utility.yul\":12315:12324   */\n      dup3\n        /* \"#utility.yul\":12311:12329   */\n      add\n        /* \"#utility.yul\":12303:12329   */\n      swap1\n      pop\n        /* \"#utility.yul\":12339:12410   */\n      tag_286\n        /* \"#utility.yul\":12407:12408   */\n      0x00\n        /* \"#utility.yul\":12396:12405   */\n      dup4\n        /* \"#utility.yul\":12392:12409   */\n      add\n        /* \"#utility.yul\":12383:12389   */\n      dup7\n        /* \"#utility.yul\":12339:12410   */\n      tag_147\n      jump\t// in\n    tag_286:\n        /* \"#utility.yul\":12420:12492   */\n      tag_287\n        /* \"#utility.yul\":12488:12490   */\n      0x20\n        /* \"#utility.yul\":12477:12486   */\n      dup4\n        /* \"#utility.yul\":12473:12491   */\n      add\n        /* \"#utility.yul\":12464:12470   */\n      dup6\n        /* \"#utility.yul\":12420:12492   */\n      tag_147\n      jump\t// in\n    tag_287:\n        /* \"#utility.yul\":12502:12574   */\n      tag_288\n        /* \"#utility.yul\":12570:12572   */\n      0x40\n        /* \"#utility.yul\":12559:12568   */\n      dup4\n        /* \"#utility.yul\":12555:12573   */\n      add\n        /* \"#utility.yul\":12546:12552   */\n      dup5\n        /* \"#utility.yul\":12502:12574   */\n      tag_147\n      jump\t// in\n    tag_288:\n        /* \"#utility.yul\":12139:12581   */\n      swap5\n      swap4\n      pop\n      pop\n      pop\n      pop\n      jump\t// out\n        /* \"#utility.yul\":12587:12781   */\n    tag_82:\n        /* \"#utility.yul\":12627:12631   */\n      0x00\n        /* \"#utility.yul\":12647:12667   */\n      tag_290\n        /* \"#utility.yul\":12665:12666   */\n      dup3\n        /* \"#utility.yul\":12647:12667   */\n      tag_143\n      jump\t// in\n    tag_290:\n        /* \"#utility.yul\":12642:12667   */\n      swap2\n      pop\n        /* \"#utility.yul\":12681:12701   */\n      tag_291\n        /* \"#utility.yul\":12699:12700   */\n      dup4\n        /* \"#utility.yul\":12681:12701   */\n      tag_143\n      jump\t// in\n    tag_291:\n        /* \"#utility.yul\":12676:12701   */\n      swap3\n      pop\n        /* \"#utility.yul\":12725:12726   */\n      dup3\n        /* \"#utility.yul\":12722:12723   */\n      dup3\n        /* \"#utility.yul\":12718:12727   */\n      sub\n        /* \"#utility.yul\":12710:12727   */\n      swap1\n      pop\n        /* \"#utility.yul\":12749:12750   */\n      dup2\n        /* \"#utility.yul\":12743:12747   */\n      dup2\n        /* \"#utility.yul\":12740:12751   */\n      gt\n        /* \"#utility.yul\":12737:12774   */\n      iszero\n      tag_292\n      jumpi\n        /* \"#utility.yul\":12754:12772   */\n      tag_293\n      tag_149\n      jump\t// in\n    tag_293:\n        /* \"#utility.yul\":12737:12774   */\n    tag_292:\n        /* \"#utility.yul\":12587:12781   */\n      swap3\n      swap2\n      pop\n      pop\n      jump\t// out\n        /* \"#utility.yul\":12787:12968   */\n    tag_153:\n        /* \"#utility.yul\":12927:12960   */\n      0x5265656e7472616e637947756172643a207265656e7472616e742063616c6c00\n        /* \"#utility.yul\":12923:12924   */\n      0x00\n        /* \"#utility.yul\":12915:12921   */\n      dup3\n        /* \"#utility.yul\":12911:12925   */\n      add\n        /* \"#utility.yul\":12904:12961   */\n      mstore\n        /* \"#utility.yul\":12787:12968   */\n      pop\n      jump\t// out\n        /* \"#utility.yul\":12974:13340   */\n    tag_154:\n        /* \"#utility.yul\":13116:13119   */\n      0x00\n        /* \"#utility.yul\":13137:13204   */\n      tag_296\n        /* \"#utility.yul\":13201:13203   */\n      0x1f\n        /* \"#utility.yul\":13196:13199   */\n      dup4\n        /* \"#utility.yul\":13137:13204   */\n      tag_132\n      jump\t// in\n    tag_296:\n        /* \"#utility.yul\":13130:13204   */\n      swap2\n      pop\n        /* \"#utility.yul\":13213:13306   */\n      tag_297\n        /* \"#utility.yul\":13302:13305   */\n      dup3\n        /* \"#utility.yul\":13213:13306   */\n      tag_153\n      jump\t// in\n    tag_297:\n        /* \"#utility.yul\":13331:13333   */\n      0x20\n        /* \"#utility.yul\":13326:13329   */\n      dup3\n        /* \"#utility.yul\":13322:13334   */\n      add\n        /* \"#utility.yul\":13315:13334   */\n      swap1\n      pop\n        /* \"#utility.yul\":12974:13340   */\n      swap2\n      swap1\n      pop\n      jump\t// out\n        /* \"#utility.yul\":13346:13765   */\n    tag_88:\n        /* \"#utility.yul\":13512:13516   */\n      0x00\n        /* \"#utility.yul\":13550:13552   */\n      0x20\n        /* \"#utility.yul\":13539:13548   */\n      dup3\n        /* \"#utility.yul\":13535:13553   */\n      add\n        /* \"#utility.yul\":13527:13553   */\n      swap1\n      pop\n        /* \"#utility.yul\":13599:13608   */\n      dup2\n        /* \"#utility.yul\":13593:13597   */\n      dup2\n        /* \"#utility.yul\":13589:13609   */\n      sub\n        /* \"#utility.yul\":13585:13586   */\n      0x00\n        /* \"#utility.yul\":13574:13583   */\n      dup4\n        /* \"#utility.yul\":13570:13587   */\n      add\n        /* \"#utility.yul\":13563:13610   */\n      mstore\n        /* \"#utility.yul\":13627:13758   */\n      tag_299\n        /* \"#utility.yul\":13753:13757   */\n      dup2\n        /* \"#utility.yul\":13627:13758   */\n      tag_154\n      jump\t// in\n    tag_299:\n        /* \"#utility.yul\":13619:13758   */\n      swap1\n      pop\n        /* \"#utility.yul\":13346:13765   */\n      swap2\n      swap1\n      pop\n      jump\t// out\n        /* \"#utility.yul\":13771:13889   */\n    tag_155:\n        /* \"#utility.yul\":13858:13882   */\n      tag_301\n        /* \"#utility.yul\":13876:13881   */\n      dup2\n        /* \"#utility.yul\":13858:13882   */\n      tag_128\n      jump\t// in\n    tag_301:\n        /* \"#utility.yul\":13853:13856   */\n      dup3\n        /* \"#utility.yul\":13846:13883   */\n      mstore\n        /* \"#utility.yul\":13771:13889   */\n      pop\n      pop\n      jump\t// out\n        /* \"#utility.yul\":13895:14337   */\n    tag_93:\n        /* \"#utility.yul\":14044:14048   */\n      0x00\n        /* \"#utility.yul\":14082:14084   */\n      0x60\n        /* \"#utility.yul\":14071:14080   */\n      dup3\n        /* \"#utility.yul\":14067:14085   */\n      add\n        /* \"#utility.yul\":14059:14085   */\n      swap1\n      pop\n        /* \"#utility.yul\":14095:14166   */\n      tag_303\n        /* \"#utility.yul\":14163:14164   */\n      0x00\n        /* \"#utility.yul\":14152:14161   */\n      dup4\n        /* \"#utility.yul\":14148:14165   */\n      add\n        /* \"#utility.yul\":14139:14145   */\n      dup7\n        /* \"#utility.yul\":14095:14166   */\n      tag_155\n      jump\t// in\n    tag_303:\n        /* \"#utility.yul\":14176:14248   */\n      tag_304\n        /* \"#utility.yul\":14244:14246   */\n      0x20\n        /* \"#utility.yul\":14233:14242   */\n      dup4\n        /* \"#utility.yul\":14229:14247   */\n      add\n        /* \"#utility.yul\":14220:14226   */\n      dup6\n        /* \"#utility.yul\":14176:14248   */\n      tag_155\n      jump\t// in\n    tag_304:\n        /* \"#utility.yul\":14258:14330   */\n      tag_305\n        /* \"#utility.yul\":14326:14328   */\n      0x40\n        /* \"#utility.yul\":14315:14324   */\n      dup4\n        /* \"#utility.yul\":14311:14329   */\n      add\n        /* \"#utility.yul\":14302:14308   */\n      dup5\n        /* \"#utility.yul\":14258:14330   */\n      tag_147\n      jump\t// in\n    tag_305:\n        /* \"#utility.yul\":13895:14337   */\n      swap5\n      swap4\n      pop\n      pop\n      pop\n      pop\n      jump\t// out\n        /* \"#utility.yul\":14343:14675   */\n    tag_97:\n        /* \"#utility.yul\":14464:14468   */\n      0x00\n        /* \"#utility.yul\":14502:14504   */\n      0x40\n        /* \"#utility.yul\":14491:14500   */\n      dup3\n        /* \"#utility.yul\":14487:14505   */\n      add\n        /* \"#utility.yul\":14479:14505   */\n      swap1\n      pop\n        /* \"#utility.yul\":14515:14586   */\n      tag_307\n        /* \"#utility.yul\":14583:14584   */\n      0x00\n        /* \"#utility.yul\":14572:14581   */\n      dup4\n        /* \"#utility.yul\":14568:14585   */\n      add\n        /* \"#utility.yul\":14559:14565   */\n      dup6\n        /* \"#utility.yul\":14515:14586   */\n      tag_155\n      jump\t// in\n    tag_307:\n        /* \"#utility.yul\":14596:14668   */\n      tag_308\n        /* \"#utility.yul\":14664:14666   */\n      0x20\n        /* \"#utility.yul\":14653:14662   */\n      dup4\n        /* \"#utility.yul\":14649:14667   */\n      add\n        /* \"#utility.yul\":14640:14646   */\n      dup5\n        /* \"#utility.yul\":14596:14668   */\n      tag_147\n      jump\t// in\n    tag_308:\n        /* \"#utility.yul\":14343:14675   */\n      swap4\n      swap3\n      pop\n      pop\n      pop\n      jump\t// out\n        /* \"#utility.yul\":14681:14766   */\n    tag_156:\n        /* \"#utility.yul\":14726:14733   */\n      0x00\n        /* \"#utility.yul\":14755:14760   */\n      dup2\n        /* \"#utility.yul\":14744:14760   */\n      swap1\n      pop\n        /* \"#utility.yul\":14681:14766   */\n      swap2\n      swap1\n      pop\n      jump\t// out\n        /* \"#utility.yul\":14772:14832   */\n    tag_157:\n        /* \"#utility.yul\":14800:14803   */\n      0x00\n        /* \"#utility.yul\":14821:14826   */\n      dup2\n        /* \"#utility.yul\":14814:14826   */\n      swap1\n      pop\n        /* \"#utility.yul\":14772:14832   */\n      swap2\n      swap1\n      pop\n      jump\t// out\n        /* \"#utility.yul\":14838:14996   */\n    tag_158:\n        /* \"#utility.yul\":14896:14905   */\n      0x00\n        /* \"#utility.yul\":14929:14990   */\n      tag_312\n        /* \"#utility.yul\":14947:14989   */\n      tag_313\n        /* \"#utility.yul\":14956:14988   */\n      tag_314\n        /* \"#utility.yul\":14982:14987   */\n      dup5\n        /* \"#utility.yul\":14956:14988   */\n      tag_156\n      jump\t// in\n    tag_314:\n        /* \"#utility.yul\":14947:14989   */\n      tag_157\n      jump\t// in\n    tag_313:\n        /* \"#utility.yul\":14929:14990   */\n      tag_143\n      jump\t// in\n    tag_312:\n        /* \"#utility.yul\":14916:14990   */\n      swap1\n      pop\n        /* \"#utility.yul\":14838:14996   */\n      swap2\n      swap1\n      pop\n      jump\t// out\n        /* \"#utility.yul\":15002:15149   */\n    tag_159:\n        /* \"#utility.yul\":15097:15142   */\n      tag_316\n        /* \"#utility.yul\":15136:15141   */\n      dup2\n        /* \"#utility.yul\":15097:15142   */\n      tag_158\n      jump\t// in\n    tag_316:\n        /* \"#utility.yul\":15092:15095   */\n      dup3\n        /* \"#utility.yul\":15085:15143   */\n      mstore\n        /* \"#utility.yul\":15002:15149   */\n      pop\n      pop\n      jump\t// out\n        /* \"#utility.yul\":15155:15503   */\n    tag_103:\n        /* \"#utility.yul\":15284:15288   */\n      0x00\n        /* \"#utility.yul\":15322:15324   */\n      0x40\n        /* \"#utility.yul\":15311:15320   */\n      dup3\n        /* \"#utility.yul\":15307:15325   */\n      add\n        /* \"#utility.yul\":15299:15325   */\n      swap1\n      pop\n        /* \"#utility.yul\":15335:15406   */\n      tag_318\n        /* \"#utility.yul\":15403:15404   */\n      0x00\n        /* \"#utility.yul\":15392:15401   */\n      dup4\n        /* \"#utility.yul\":15388:15405   */\n      add\n        /* \"#utility.yul\":15379:15385   */\n      dup6\n        /* \"#utility.yul\":15335:15406   */\n      tag_155\n      jump\t// in\n    tag_318:\n        /* \"#utility.yul\":15416:15496   */\n      tag_319\n        /* \"#utility.yul\":15492:15494   */\n      0x20\n        /* \"#utility.yul\":15481:15490   */\n      dup4\n        /* \"#utility.yul\":15477:15495   */\n      add\n        /* \"#utility.yul\":15468:15474   */\n      dup5\n        /* \"#utility.yul\":15416:15496   */\n      tag_159\n      jump\t// in\n    tag_319:\n        /* \"#utility.yul\":15155:15503   */\n      swap4\n      swap3\n      pop\n      pop\n      pop\n      jump\t// out\n        /* \"#utility.yul\":15509:15731   */\n    tag_114:\n        /* \"#utility.yul\":15602:15606   */\n      0x00\n        /* \"#utility.yul\":15640:15642   */\n      0x20\n        /* \"#utility.yul\":15629:15638   */\n      dup3\n        /* \"#utility.yul\":15625:15643   */\n      add\n        /* \"#utility.yul\":15617:15643   */\n      swap1\n      pop\n        /* \"#utility.yul\":15653:15724   */\n      tag_321\n        /* \"#utility.yul\":15721:15722   */\n      0x00\n        /* \"#utility.yul\":15710:15719   */\n      dup4\n        /* \"#utility.yul\":15706:15723   */\n      add\n        /* \"#utility.yul\":15697:15703   */\n      dup5\n        /* \"#utility.yul\":15653:15724   */\n      tag_155\n      jump\t// in\n    tag_321:\n        /* \"#utility.yul\":15509:15731   */\n      swap3\n      swap2\n      pop\n      pop\n      jump\t// out\n\n    auxdata: 0xa2646970667358221220c9c7ee0b992320b5919878dbad6955358d855382413328a7da5ad5093441455264736f6c634300081e0033\n}\n",
				"bytecode": {
					"linkReferences": {},
					"object": "6080604052348015600e575f5ffd5b5060015f81905550610fe7806100235f395ff3fe608060405234801561000f575f5ffd5b5060043610610034575f3560e01c80638a48ca8514610038578063ead99b6114610054575b5f5ffd5b610052600480360381019061004d9190610849565b610070565b005b61006e60048036038101906100699190610954565b61020c565b005b61007861047f565b5f82829050116100bd576040517f08c379a00000000000000000000000000000000000000000000000000000000081526004016100b490610a0b565b60405180910390fd5b5f5f90505f5f90505f5f90505b848490508110156101ad575f8585838181106100e9576100e8610a29565b5b9050604002018036038101906100ff9190610b8c565b9050805f015173ffffffffffffffffffffffffffffffffffffffff1663677bd9ff82602001516040518263ffffffff1660e01b81526004016101419190610bc6565b6020604051808303815f875af192505050801561017c57506040513d601f19601f820116820180604052508101906101799190610bf3565b60015b1561019f57808561018d9190610c4b565b9450838061019a90610c7e565b945050505b8180600101925050506100ca565b503373ffffffffffffffffffffffffffffffffffffffff167fb9c05773bac087c79ca346191a3f49b33e00ab1c6913f7788c9a3ec9391beab283836040516101f6929190610cc5565b60405180910390a250506102086104cc565b5050565b61021461047f565b5f8383905011610259576040517f08c379a000000000000000000000000000000000000000000000000000000000815260040161025090610d36565b60405180910390fd5b5f5f90505f5f90505b848490508110156102a4578484828181106102805761027f610a29565b5b90506080020160600135826102959190610c4b565b91508080600101915050610262565b506102d23330838573ffffffffffffffffffffffffffffffffffffffff166104d5909392919063ffffffff16565b5f5f90505f5f90505b85859050811015610411575f8686838181106102fa576102f9610a29565b5b9050608002018036038101906103109190610dc9565b9050610344815f015182606001518773ffffffffffffffffffffffffffffffffffffffff166105579092919063ffffffff16565b805f015173ffffffffffffffffffffffffffffffffffffffff1663e71c96978260200151836040015184606001516040518463ffffffff1660e01b815260040161039093929190610df4565b5f604051808303815f87803b1580156103a7575f5ffd5b505af19250505080156103b8575060015b610402578060600151836103cc9190610c4b565b92506103fd3382606001518773ffffffffffffffffffffffffffffffffffffffff166106649092919063ffffffff16565b610403565b5b8180600101925050506102db565b503373ffffffffffffffffffffffffffffffffffffffff167ffaa3f3b5e4bd3185bc059a2498b70867fd2b41976ecd9d924e19972a00a007ee82846104569190610e29565b87879050604051610468929190610cc5565b60405180910390a2505061047a6104cc565b505050565b60025f54036104c3576040517f08c379a00000000000000000000000000000000000000000000000000000000081526004016104ba90610ea6565b60405180910390fd5b60025f81905550565b60015f81905550565b610551848573ffffffffffffffffffffffffffffffffffffffff166323b872dd86868660405160240161050a93929190610ed3565b604051602081830303815290604052915060e01b6020820180517bffffffffffffffffffffffffffffffffffffffffffffffffffffffff83818316178352505050506106e3565b50505050565b5f8373ffffffffffffffffffffffffffffffffffffffff1663095ea7b38484604051602401610587929190610f08565b604051602081830303815290604052915060e01b6020820180517bffffffffffffffffffffffffffffffffffffffffffffffffffffffff838183161783525050505090506105d5848261077e565b61065e57610653848573ffffffffffffffffffffffffffffffffffffffff1663095ea7b3865f60405160240161060c929190610f71565b604051602081830303815290604052915060e01b6020820180517bffffffffffffffffffffffffffffffffffffffffffffffffffffffff83818316178352505050506106e3565b61065d84826106e3565b5b50505050565b6106de838473ffffffffffffffffffffffffffffffffffffffff1663a9059cbb8585604051602401610697929190610f08565b604051602081830303815290604052915060e01b6020820180517bffffffffffffffffffffffffffffffffffffffffffffffffffffffff83818316178352505050506106e3565b505050565b5f5f60205f8451602086015f885af180610702576040513d5f823e3d81fd5b3d92505f519150505f821461071b576001811415610736565b5f8473ffffffffffffffffffffffffffffffffffffffff163b145b1561077857836040517f5274afe700000000000000000000000000000000000000000000000000000000815260040161076f9190610f98565b60405180910390fd5b50505050565b5f5f5f5f60205f8651602088015f8a5af192503d91505f5190508280156107cc57505f82146107b057600181146107cb565b5f8673ffffffffffffffffffffffffffffffffffffffff163b115b5b935050505092915050565b5f604051905090565b5f5ffd5b5f5ffd5b5f5ffd5b5f5ffd5b5f5ffd5b5f5f83601f840112610809576108086107e8565b5b8235905067ffffffffffffffff811115610826576108256107ec565b5b602083019150836040820283011115610842576108416107f0565b5b9250929050565b5f5f6020838503121561085f5761085e6107e0565b5b5f83013567ffffffffffffffff81111561087c5761087b6107e4565b5b610888858286016107f4565b92509250509250929050565b5f5f83601f8401126108a9576108a86107e8565b5b8235905067ffffffffffffffff8111156108c6576108c56107ec565b5b6020830191508360808202830111156108e2576108e16107f0565b5b9250929050565b5f73ffffffffffffffffffffffffffffffffffffffff82169050919050565b5f610912826108e9565b9050919050565b5f61092382610908565b9050919050565b61093381610919565b811461093d575f5ffd5b50565b5f8135905061094e8161092a565b92915050565b5f5f5f6040848603121561096b5761096a6107e0565b5b5f84013567ffffffffffffffff811115610988576109876107e4565b5b61099486828701610894565b935093505060206109a786828701610940565b9150509250925092565b5f82825260208201905092915050565b7f4e6f20636c61696d732070726f766964656400000000000000000000000000005f82015250565b5f6109f56012836109b1565b9150610a00826109c1565b602082019050919050565b5f6020820190508181035f830152610a22816109e9565b9050919050565b7f4e487b71000000000000000000000000000000000000000000000000000000005f52603260045260245ffd5b5f5ffd5b5f601f19601f8301169050919050565b7f4e487b71000000000000000000000000000000000000000000000000000000005f52604160045260245ffd5b610aa082610a5a565b810181811067ffffffffffffffff82111715610abf57610abe610a6a565b5b80604052505050565b5f610ad16107d7565b9050610add8282610a97565b919050565b610aeb81610908565b8114610af5575f5ffd5b50565b5f81359050610b0681610ae2565b92915050565b5f819050919050565b610b1e81610b0c565b8114610b28575f5ffd5b50565b5f81359050610b3981610b15565b92915050565b5f60408284031215610b5457610b53610a56565b5b610b5e6040610ac8565b90505f610b6d84828501610af8565b5f830152506020610b8084828501610b2b565b60208301525092915050565b5f60408284031215610ba157610ba06107e0565b5b5f610bae84828501610b3f565b91505092915050565b610bc081610b0c565b82525050565b5f602082019050610bd95f830184610bb7565b92915050565b5f81519050610bed81610b15565b92915050565b5f60208284031215610c0857610c076107e0565b5b5f610c1584828501610bdf565b91505092915050565b7f4e487b71000000000000000000000000000000000000000000000000000000005f52601160045260245ffd5b5f610c5582610b0c565b9150610c6083610b0c565b9250828201905080821115610c7857610c77610c1e565b5b92915050565b5f610c8882610b0c565b91507fffffffffffffffffffffffffffffffffffffffffffffffffffffffffffffffff8203610cba57610cb9610c1e565b5b600182019050919050565b5f604082019050610cd85f830185610bb7565b610ce56020830184610bb7565b9392505050565b7f4e6f20626574732070726f7669646564000000000000000000000000000000005f82015250565b5f610d206010836109b1565b9150610d2b82610cec565b602082019050919050565b5f6020820190508181035f830152610d4d81610d14565b9050919050565b5f60808284031215610d6957610d68610a56565b5b610d736080610ac8565b90505f610d8284828501610af8565b5f830152506020610d9584828501610b2b565b6020830152506040610da984828501610b2b565b6040830152506060610dbd84828501610b2b565b60608301525092915050565b5f60808284031215610dde57610ddd6107e0565b5b5f610deb84828501610d54565b91505092915050565b5f606082019050610e075f830186610bb7565b610e146020830185610bb7565b610e216040830184610bb7565b949350505050565b5f610e3382610b0c565b9150610e3e83610b0c565b9250828203905081811115610e5657610e55610c1e565b5b92915050565b7f5265656e7472616e637947756172643a207265656e7472616e742063616c6c005f82015250565b5f610e90601f836109b1565b9150610e9b82610e5c565b602082019050919050565b5f6020820190508181035f830152610ebd81610e84565b9050919050565b610ecd81610908565b82525050565b5f606082019050610ee65f830186610ec4565b610ef36020830185610ec4565b610f006040830184610bb7565b949350505050565b5f604082019050610f1b5f830185610ec4565b610f286020830184610bb7565b9392505050565b5f819050919050565b5f819050919050565b5f610f5b610f56610f5184610f2f565b610f38565b610b0c565b9050919050565b610f6b81610f41565b82525050565b5f604082019050610f845f830185610ec4565b610f916020830184610f62565b9392505050565b5f602082019050610fab5f830184610ec4565b9291505056fea2646970667358221220c9c7ee0b992320b5919878dbad6955358d855382413328a7da5ad5093441455264736f6c634300081e0033",
					"opcodes": "PUSH1 0x80 PUSH1 0x40 MSTORE CALLVALUE DUP1 ISZERO PUSH1 0xE JUMPI PUSH0 PUSH0 REVERT JUMPDEST POP PUSH1 0x1 PUSH0 DUP2 SWAP1 SSTORE POP PUSH2 0xFE7 DUP1 PUSH2 0x23 PUSH0 CODECOPY PUSH0 RETURN INVALID PUSH1 0x80 PUSH1 0x40 MSTORE CALLVALUE DUP1 ISZERO PUSH2 0xF JUMPI PUSH0 PUSH0 REVERT JUMPDEST POP PUSH1 0x4 CALLDATASIZE LT PUSH2 0x34 JUMPI PUSH0 CALLDATALOAD PUSH1 0xE0 SHR DUP1 PUSH4 0x8A48CA85 EQ PUSH2 0x38 JUMPI DUP1 PUSH4 0xEAD99B61 EQ PUSH2 0x54 JUMPI JUMPDEST PUSH0 PUSH0 REVERT JUMPDEST PUSH2 0x52 PUSH1 0x4 DUP1 CALLDATASIZE SUB DUP2 ADD SWAP1 PUSH2 0x4D SWAP2 SWAP1 PUSH2 0x849 JUMP JUMPDEST PUSH2 0x70 JUMP JUMPDEST STOP JUMPDEST PUSH2 0x6E PUSH1 0x4 DUP1 CALLDATASIZE SUB DUP2 ADD SWAP1 PUSH2 0x69 SWAP2 SWAP1 PUSH2 0x954 JUMP JUMPDEST PUSH2 0x20C JUMP JUMPDEST STOP JUMPDEST PUSH2 0x78 PUSH2 0x47F JUMP JUMPDEST PUSH0 DUP3 DUP3 SWAP1 POP GT PUSH2 0xBD JUMPI PUSH1 0x40 MLOAD PUSH32 0x8C379A000000000000000000000000000000000000000000000000000000000 DUP2 MSTORE PUSH1 0x4 ADD PUSH2 0xB4 SWAP1 PUSH2 0xA0B JUMP JUMPDEST PUSH1 0x40 MLOAD DUP1 SWAP2 SUB SWAP1 REVERT JUMPDEST PUSH0 PUSH0 SWAP1 POP PUSH0 PUSH0 SWAP1 POP PUSH0 PUSH0 SWAP1 POP JUMPDEST DUP5 DUP5 SWAP1 POP DUP2 LT ISZERO PUSH2 0x1AD JUMPI PUSH0 DUP6 DUP6 DUP4 DUP2 DUP2 LT PUSH2 0xE9 JUMPI PUSH2 0xE8 PUSH2 0xA29 JUMP JUMPDEST JUMPDEST SWAP1 POP PUSH1 0x40 MUL ADD DUP1 CALLDATASIZE SUB DUP2 ADD SWAP1 PUSH2 0xFF SWAP2 SWAP1 PUSH2 0xB8C JUMP JUMPDEST SWAP1 POP DUP1 PUSH0 ADD MLOAD PUSH20 0xFFFFFFFFFFFFFFFFFFFFFFFFFFFFFFFFFFFFFFFF AND PUSH4 0x677BD9FF DUP3 PUSH1 0x20 ADD MLOAD PUSH1 0x40 MLOAD DUP3 PUSH4 0xFFFFFFFF AND PUSH1 0xE0 SHL DUP2 MSTORE PUSH1 0x4 ADD PUSH2 0x141 SWAP2 SWAP1 PUSH2 0xBC6 JUMP JUMPDEST PUSH1 0x20 PUSH1 0x40 MLOAD DUP1 DUP4 SUB DUP2 PUSH0 DUP8 GAS CALL SWAP3 POP POP POP DUP1 ISZERO PUSH2 0x17C JUMPI POP PUSH1 0x40 MLOAD RETURNDATASIZE PUSH1 0x1F NOT PUSH1 0x1F DUP3 ADD AND DUP3 ADD DUP1 PUSH1 0x40 MSTORE POP DUP2 ADD SWAP1 PUSH2 0x179 SWAP2 SWAP1 PUSH2 0xBF3 JUMP JUMPDEST PUSH1 0x1 JUMPDEST ISZERO PUSH2 0x19F JUMPI DUP1 DUP6 PUSH2 0x18D SWAP2 SWAP1 PUSH2 0xC4B JUMP JUMPDEST SWAP5 POP DUP4 DUP1 PUSH2 0x19A SWAP1 PUSH2 0xC7E JUMP JUMPDEST SWAP5 POP POP POP JUMPDEST DUP2 DUP1 PUSH1 0x1 ADD SWAP3 POP POP POP PUSH2 0xCA JUMP JUMPDEST POP CALLER PUSH20 0xFFFFFFFFFFFFFFFFFFFFFFFFFFFFFFFFFFFFFFFF AND PUSH32 0xB9C05773BAC087C79CA346191A3F49B33E00AB1C6913F7788C9A3EC9391BEAB2 DUP4 DUP4 PUSH1 0x40 MLOAD PUSH2 0x1F6 SWAP3 SWAP2 SWAP1 PUSH2 0xCC5 JUMP JUMPDEST PUSH1 0x40 MLOAD DUP1 SWAP2 SUB SWAP1 LOG2 POP POP PUSH2 0x208 PUSH2 0x4CC JUMP JUMPDEST POP POP JUMP JUMPDEST PUSH2 0x214 PUSH2 0x47F JUMP JUMPDEST PUSH0 DUP4 DUP4 SWAP1 POP GT PUSH2 0x259 JUMPI PUSH1 0x40 MLOAD PUSH32 0x8C379A000000000000000000000000000000000000000000000000000000000 DUP2 MSTORE PUSH1 0x4 ADD PUSH2 0x250 SWAP1 PUSH2 0xD36 JUMP JUMPDEST PUSH1 0x40 MLOAD DUP1 SWAP2 SUB SWAP1 REVERT JUMPDEST PUSH0 PUSH0 SWAP1 POP PUSH0 PUSH0 SWAP1 POP JUMPDEST DUP5 DUP5 SWAP1 POP DUP2 LT ISZERO PUSH2 0x2A4 JUMPI DUP5 DUP5 DUP3 DUP2 DUP2 LT PUSH2 0x280 JUMPI PUSH2 0x27F PUSH2 0xA29 JUMP JUMPDEST JUMPDEST SWAP1 POP PUSH1 0x80 MUL ADD PUSH1 0x60 ADD CALLDATALOAD DUP3 PUSH2 0x295 SWAP2 SWAP1 PUSH2 0xC4B JUMP JUMPDEST SWAP2 POP DUP1 DUP1 PUSH1 0x1 ADD SWAP2 POP POP PUSH2 0x262 JUMP JUMPDEST POP PUSH2 0x2D2 CALLER ADDRESS DUP4 DUP6 PUSH20 0xFFFFFFFFFFFFFFFFFFFFFFFFFFFFFFFFFFFFFFFF AND PUSH2 0x4D5 SWAP1 SWAP4 SWAP3 SWAP2 SWAP1 PUSH4 0xFFFFFFFF AND JUMP JUMPDEST PUSH0 PUSH0 SWAP1 POP PUSH0 PUSH0 SWAP1 POP JUMPDEST DUP6 DUP6 SWAP1 POP DUP2 LT ISZERO PUSH2 0x411 JUMPI PUSH0 DUP7 DUP7 DUP4 DUP2 DUP2 LT PUSH2 0x2FA JUMPI PUSH2 0x2F9 PUSH2 0xA29 JUMP JUMPDEST JUMPDEST SWAP1 POP PUSH1 0x80 MUL ADD DUP1 CALLDATASIZE SUB DUP2 ADD SWAP1 PUSH2 0x310 SWAP2 SWAP1 PUSH2 0xDC9 JUMP JUMPDEST SWAP1 POP PUSH2 0x344 DUP2 PUSH0 ADD MLOAD DUP3 PUSH1 0x60 ADD MLOAD DUP8 PUSH20 0xFFFFFFFFFFFFFFFFFFFFFFFFFFFFFFFFFFFFFFFF AND PUSH2 0x557 SWAP1 SWAP3 SWAP2 SWAP1 PUSH4 0xFFFFFFFF AND JUMP JUMPDEST DUP1 PUSH0 ADD MLOAD PUSH20 0xFFFFFFFFFFFFFFFFFFFFFFFFFFFFFFFFFFFFFFFF AND PUSH4 0xE71C9697 DUP3 PUSH1 0x20 ADD MLOAD DUP4 PUSH1 0x40 ADD MLOAD DUP5 PUSH1 0x60 ADD MLOAD PUSH1 0x40 MLOAD DUP5 PUSH4 0xFFFFFFFF AND PUSH1 0xE0 SHL DUP2 MSTORE PUSH1 0x4 ADD PUSH2 0x390 SWAP4 SWAP3 SWAP2 SWAP1 PUSH2 0xDF4 JUMP JUMPDEST PUSH0 PUSH1 0x40 MLOAD DUP1 DUP4 SUB DUP2 PUSH0 DUP8 DUP1 EXTCODESIZE ISZERO DUP1 ISZERO PUSH2 0x3A7 JUMPI PUSH0 PUSH0 REVERT JUMPDEST POP GAS CALL SWAP3 POP POP POP DUP1 ISZERO PUSH2 0x3B8 JUMPI POP PUSH1 0x1 JUMPDEST PUSH2 0x402 JUMPI DUP1 PUSH1 0x60 ADD MLOAD DUP4 PUSH2 0x3CC SWAP2 SWAP1 PUSH2 0xC4B JUMP JUMPDEST SWAP3 POP PUSH2 0x3FD CALLER DUP3 PUSH1 0x60 ADD MLOAD DUP8 PUSH20 0xFFFFFFFFFFFFFFFFFFFFFFFFFFFFFFFFFFFFFFFF AND PUSH2 0x664 SWAP1 SWAP3 SWAP2 SWAP1 PUSH4 0xFFFFFFFF AND JUMP JUMPDEST PUSH2 0x403 JUMP JUMPDEST JUMPDEST DUP2 DUP1 PUSH1 0x1 ADD SWAP3 POP POP POP PUSH2 0x2DB JUMP JUMPDEST POP CALLER PUSH20 0xFFFFFFFFFFFFFFFFFFFFFFFFFFFFFFFFFFFFFFFF AND PUSH32 0xFAA3F3B5E4BD3185BC059A2498B70867FD2B41976ECD9D924E19972A00A007EE DUP3 DUP5 PUSH2 0x456 SWAP2 SWAP1 PUSH2 0xE29 JUMP JUMPDEST DUP8 DUP8 SWAP1 POP PUSH1 0x40 MLOAD PUSH2 0x468 SWAP3 SWAP2 SWAP1 PUSH2 0xCC5 JUMP JUMPDEST PUSH1 0x40 MLOAD DUP1 SWAP2 SUB SWAP1 LOG2 POP POP PUSH2 0x47A PUSH2 0x4CC JUMP JUMPDEST POP POP POP JUMP JUMPDEST PUSH1 0x2 PUSH0 SLOAD SUB PUSH2 0x4C3 JUMPI PUSH1 0x40 MLOAD PUSH32 0x8C379A000000000000000000000000000000000000000000000000000000000 DUP2 MSTORE PUSH1 0x4 ADD PUSH2 0x4BA SWAP1 PUSH2 0xEA6 JUMP JUMPDEST PUSH1 0x40 MLOAD DUP1 SWAP2 SUB SWAP1 REVERT JUMPDEST PUSH1 0x2 PUSH0 DUP2 SWAP1 SSTORE POP JUMP JUMPDEST PUSH1 0x1 PUSH0 DUP2 SWAP1 SSTORE POP JUMP JUMPDEST PUSH2 0x551 DUP5 DUP6 PUSH20 0xFFFFFFFFFFFFFFFFFFFFFFFFFFFFFFFFFFFFFFFF AND PUSH4 0x23B872DD DUP7 DUP7 DUP7 PUSH1 0x40 MLOAD PUSH1 0x24 ADD PUSH2 0x50A SWAP4 SWAP3 SWAP2 SWAP1 PUSH2 0xED3 JUMP JUMPDEST PUSH1 0x40 MLOAD PUSH1 0x20 DUP2 DUP4 SUB SUB DUP2 MSTORE SWAP1 PUSH1 0x40 MSTORE SWAP2 POP PUSH1 0xE0 SHL PUSH1 0x20 DUP3 ADD DUP1 MLOAD PUSH28 0xFFFFFFFFFFFFFFFFFFFFFFFFFFFFFFFFFFFFFFFFFFFFFFFFFFFFFFFF DUP4 DUP2 DUP4 AND OR DUP4 MSTORE POP POP POP POP PUSH2 0x6E3 JUMP JUMPDEST POP POP POP POP JUMP JUMPDEST PUSH0 DUP4 PUSH20 0xFFFFFFFFFFFFFFFFFFFFFFFFFFFFFFFFFFFFFFFF AND PUSH4 0x95EA7B3 DUP5 DUP5 PUSH1 0x40 MLOAD PUSH1 0x24 ADD PUSH2 0x587 SWAP3 SWAP2 SWAP1 PUSH2 0xF08 JUMP JUMPDEST PUSH1 0x40 MLOAD PUSH1 0x20 DUP2 DUP4 SUB SUB DUP2 MSTORE SWAP1 PUSH1 0x40 MSTORE SWAP2 POP PUSH1 0xE0 SHL PUSH1 0x20 DUP3 ADD DUP1 MLOAD PUSH28 0xFFFFFFFFFFFFFFFFFFFFFFFFFFFFFFFFFFFFFFFFFFFFFFFFFFFFFFFF DUP4 DUP2 DUP4 AND OR DUP4 MSTORE POP POP POP POP SWAP1 POP PUSH2 0x5D5 DUP5 DUP3 PUSH2 0x77E JUMP JUMPDEST PUSH2 0x65E JUMPI PUSH2 0x653 DUP5 DUP6 PUSH20 0xFFFFFFFFFFFFFFFFFFFFFFFFFFFFFFFFFFFFFFFF AND PUSH4 0x95EA7B3 DUP7 PUSH0 PUSH1 0x40 MLOAD PUSH1 0x24 ADD PUSH2 0x60C SWAP3 SWAP2 SWAP1 PUSH2 0xF71 JUMP JUMPDEST PUSH1 0x40 MLOAD PUSH1 0x20 DUP2 DUP4 SUB SUB DUP2 MSTORE SWAP1 PUSH1 0x40 MSTORE SWAP2 POP PUSH1 0xE0 SHL PUSH1 0x20 DUP3 ADD DUP1 MLOAD PUSH28 0xFFFFFFFFFFFFFFFFFFFFFFFFFFFFFFFFFFFFFFFFFFFFFFFFFFFFFFFF DUP4 DUP2 DUP4 AND OR DUP4 MSTORE POP POP POP POP PUSH2 0x6E3 JUMP JUMPDEST PUSH2 0x65D DUP5 DUP3 PUSH2 0x6E3 JUMP JUMPDEST JUMPDEST POP POP POP POP JUMP JUMPDEST PUSH2 0x6DE DUP4 DUP5 PUSH20 0xFFFFFFFFFFFFFFFFFFFFFFFFFFFFFFFFFFFFFFFF AND PUSH4 0xA9059CBB DUP6 DUP6 PUSH1 0x40 MLOAD PUSH1 0x24 ADD PUSH2 0x697 SWAP3 SWAP2 SWAP1 PUSH2 0xF08 JUMP JUMPDEST PUSH1 0x40 MLOAD PUSH1 0x20 DUP2 DUP4 SUB SUB DUP2 MSTORE SWAP1 PUSH1 0x40 MSTORE SWAP2 POP PUSH1 0xE0 SHL PUSH1 0x20 DUP3 ADD DUP1 MLOAD PUSH28 0xFFFFFFFFFFFFFFFFFFFFFFFFFFFFFFFFFFFFFFFFFFFFFFFFFFFFFFFF DUP4 DUP2 DUP4 AND OR DUP4 MSTORE POP POP POP POP PUSH2 0x6E3 JUMP JUMPDEST POP POP POP JUMP JUMPDEST PUSH0 PUSH0 PUSH1 0x20 PUSH0 DUP5 MLOAD PUSH1 0x20 DUP7 ADD PUSH0 DUP9 GAS CALL DUP1 PUSH2 0x702 JUMPI PUSH1 0x40 MLOAD RETURNDATASIZE PUSH0 DUP3 RETURNDATACOPY RETURNDATASIZE DUP2 REVERT JUMPDEST RETURNDATASIZE SWAP3 POP PUSH0 MLOAD SWAP2 POP POP PUSH0 DUP3 EQ PUSH2 0x71B JUMPI PUSH1 0x1 DUP2 EQ ISZERO PUSH2 0x736 JUMP JUMPDEST PUSH0 DUP5 PUSH20 0xFFFFFFFFFFFFFFFFFFFFFFFFFFFFFFFFFFFFFFFF AND EXTCODESIZE EQ JUMPDEST ISZERO PUSH2 0x778 JUMPI DUP4 PUSH1 0x40 MLOAD PUSH32 0x5274AFE700000000000000000000000000000000000000000000000000000000 DUP2 MSTORE PUSH1 0x4 ADD PUSH2 0x76F SWAP2 SWAP1 PUSH2 0xF98 JUMP JUMPDEST PUSH1 0x40 MLOAD DUP1 SWAP2 SUB SWAP1 REVERT JUMPDEST POP POP POP POP JUMP JUMPDEST PUSH0 PUSH0 PUSH0 PUSH0 PUSH1 0x20 PUSH0 DUP7 MLOAD PUSH1 0x20 DUP9 ADD PUSH0 DUP11 GAS CALL SWAP3 POP RETURNDATASIZE SWAP2 POP PUSH0 MLOAD SWAP1 POP DUP3 DUP1 ISZERO PUSH2 0x7CC JUMPI POP PUSH0 DUP3 EQ PUSH2 0x7B0 JUMPI PUSH1 0x1 DUP2 EQ PUSH2 0x7CB JUMP JUMPDEST PUSH0 DUP7 PUSH20 0xFFFFFFFFFFFFFFFFFFFFFFFFFFFFFFFFFFFFFFFF AND EXTCODESIZE GT JUMPDEST JUMPDEST SWAP4 POP POP POP POP SWAP3 SWAP2 POP POP JUMP JUMPDEST PUSH0 PUSH1 0x40 MLOAD SWAP1 POP SWAP1 JUMP JUMPDEST PUSH0 PUSH0 REVERT JUMPDEST PUSH0 PUSH0 REVERT JUMPDEST PUSH0 PUSH0 REVERT JUMPDEST PUSH0 PUSH0 REVERT JUMPDEST PUSH0 PUSH0 REVERT JUMPDEST PUSH0 PUSH0 DUP4 PUSH1 0x1F DUP5 ADD SLT PUSH2 0x809 JUMPI PUSH2 0x808 PUSH2 0x7E8 JUMP JUMPDEST JUMPDEST DUP3 CALLDATALOAD SWAP1 POP PUSH8 0xFFFFFFFFFFFFFFFF DUP2 GT ISZERO PUSH2 0x826 JUMPI PUSH2 0x825 PUSH2 0x7EC JUMP JUMPDEST JUMPDEST PUSH1 0x20 DUP4 ADD SWAP2 POP DUP4 PUSH1 0x40 DUP3 MUL DUP4 ADD GT ISZERO PUSH2 0x842 JUMPI PUSH2 0x841 PUSH2 0x7F0 JUMP JUMPDEST JUMPDEST SWAP3 POP SWAP3 SWAP1 POP JUMP JUMPDEST PUSH0 PUSH0 PUSH1 0x20 DUP4 DUP6 SUB SLT ISZERO PUSH2 0x85F JUMPI PUSH2 0x85E PUSH2 0x7E0 JUMP JUMPDEST JUMPDEST PUSH0 DUP4 ADD CALLDATALOAD PUSH8 0xFFFFFFFFFFFFFFFF DUP2 GT ISZERO PUSH2 0x87C JUMPI PUSH2 0x87B PUSH2 0x7E4 JUMP JUMPDEST JUMPDEST PUSH2 0x888 DUP6 DUP3 DUP7 ADD PUSH2 0x7F4 JUMP JUMPDEST SWAP3 POP SWAP3 POP POP SWAP3 POP SWAP3 SWAP1 POP JUMP JUMPDEST PUSH0 PUSH0 DUP4 PUSH1 0x1F DUP5 ADD SLT PUSH2 0x8A9 JUMPI PUSH2 0x8A8 PUSH2 0x7E8 JUMP JUMPDEST JUMPDEST DUP3 CALLDATALOAD SWAP1 POP PUSH8 0xFFFFFFFFFFFFFFFF DUP2 GT ISZERO PUSH2 0x8C6 JUMPI PUSH2 0x8C5 PUSH2 0x7EC JUMP JUMPDEST JUMPDEST PUSH1 0x20 DUP4 ADD SWAP2 POP DUP4 PUSH1 0x80 DUP3 MUL DUP4 ADD GT ISZERO PUSH2 0x8E2 JUMPI PUSH2 0x8E1 PUSH2 0x7F0 JUMP JUMPDEST JUMPDEST SWAP3 POP SWAP3 SWAP1 POP JUMP JUMPDEST PUSH0 PUSH20 0xFFFFFFFFFFFFFFFFFFFFFFFFFFFFFFFFFFFFFFFF DUP3 AND SWAP1 POP SWAP2 SWAP1 POP JUMP JUMPDEST PUSH0 PUSH2 0x912 DUP3 PUSH2 0x8E9 JUMP JUMPDEST SWAP1 POP SWAP2 SWAP1 POP JUMP JUMPDEST PUSH0 PUSH2 0x923 DUP3 PUSH2 0x908 JUMP JUMPDEST SWAP1 POP SWAP2 SWAP1 POP JUMP JUMPDEST PUSH2 0x933 DUP2 PUSH2 0x919 JUMP JUMPDEST DUP2 EQ PUSH2 0x93D JUMPI PUSH0 PUSH0 REVERT JUMPDEST POP JUMP JUMPDEST PUSH0 DUP2 CALLDATALOAD SWAP1 POP PUSH2 0x94E DUP2 PUSH2 0x92A JUMP JUMPDEST SWAP3 SWAP2 POP POP JUMP JUMPDEST PUSH0 PUSH0 PUSH0 PUSH1 0x40 DUP5 DUP7 SUB SLT ISZERO PUSH2 0x96B JUMPI PUSH2 0x96A PUSH2 0x7E0 JUMP JUMPDEST JUMPDEST PUSH0 DUP5 ADD CALLDATALOAD PUSH8 0xFFFFFFFFFFFFFFFF DUP2 GT ISZERO PUSH2 0x988 JUMPI PUSH2 0x987 PUSH2 0x7E4 JUMP JUMPDEST JUMPDEST PUSH2 0x994 DUP7 DUP3 DUP8 ADD PUSH2 0x894 JUMP JUMPDEST SWAP4 POP SWAP4 POP POP PUSH1 0x20 PUSH2 0x9A7 DUP7 DUP3 DUP8 ADD PUSH2 0x940 JUMP JUMPDEST SWAP2 POP POP SWAP3 POP SWAP3 POP SWAP3 JUMP JUMPDEST PUSH0 DUP3 DUP3 MSTORE PUSH1 0x20 DUP3 ADD SWAP1 POP SWAP3 SWAP2 POP POP JUMP JUMPDEST PUSH32 0x4E6F20636C61696D732070726F76696465640000000000000000000000000000 PUSH0 DUP3 ADD MSTORE POP JUMP JUMPDEST PUSH0 PUSH2 0x9F5 PUSH1 0x12 DUP4 PUSH2 0x9B1 JUMP JUMPDEST SWAP2 POP PUSH2 0xA00 DUP3 PUSH2 0x9C1 JUMP JUMPDEST PUSH1 0x20 DUP3 ADD SWAP1 POP SWAP2 SWAP1 POP JUMP JUMPDEST PUSH0 PUSH1 0x20 DUP3 ADD SWAP1 POP DUP2 DUP2 SUB PUSH0 DUP4 ADD MSTORE PUSH2 0xA22 DUP2 PUSH2 0x9E9 JUMP JUMPDEST SWAP1 POP SWAP2 SWAP1 POP JUMP JUMPDEST PUSH32 0x4E487B7100000000000000000000000000000000000000000000000000000000 PUSH0 MSTORE PUSH1 0x32 PUSH1 0x4 MSTORE PUSH1 0x24 PUSH0 REVERT JUMPDEST PUSH0 PUSH0 REVERT JUMPDEST PUSH0 PUSH1 0x1F NOT PUSH1 0x1F DUP4 ADD AND SWAP1 POP SWAP2 SWAP1 POP JUMP JUMPDEST PUSH32 0x4E487B7100000000000000000000000000000000000000000000000000000000 PUSH0 MSTORE PUSH1 0x41 PUSH1 0x4 MSTORE PUSH1 0x24 PUSH0 REVERT JUMPDEST PUSH2 0xAA0 DUP3 PUSH2 0xA5A JUMP JUMPDEST DUP2 ADD DUP2 DUP2 LT PUSH8 0xFFFFFFFFFFFFFFFF DUP3 GT OR ISZERO PUSH2 0xABF JUMPI PUSH2 0xABE PUSH2 0xA6A JUMP JUMPDEST JUMPDEST DUP1 PUSH1 0x40 MSTORE POP POP POP JUMP JUMPDEST PUSH0 PUSH2 0xAD1 PUSH2 0x7D7 JUMP JUMPDEST SWAP1 POP PUSH2 0xADD DUP3 DUP3 PUSH2 0xA97 JUMP JUMPDEST SWAP2 SWAP1 POP JUMP JUMPDEST PUSH2 0xAEB DUP2 PUSH2 0x908 JUMP JUMPDEST DUP2 EQ PUSH2 0xAF5 JUMPI PUSH0 PUSH0 REVERT JUMPDEST POP JUMP JUMPDEST PUSH0 DUP2 CALLDATALOAD SWAP1 POP PUSH2 0xB06 DUP2 PUSH2 0xAE2 JUMP JUMPDEST SWAP3 SWAP2 POP POP JUMP JUMPDEST PUSH0 DUP2 SWAP1 POP SWAP2 SWAP1 POP JUMP JUMPDEST PUSH2 0xB1E DUP2 PUSH2 0xB0C JUMP JUMPDEST DUP2 EQ PUSH2 0xB28 JUMPI PUSH0 PUSH0 REVERT JUMPDEST POP JUMP JUMPDEST PUSH0 DUP2 CALLDATALOAD SWAP1 POP PUSH2 0xB39 DUP2 PUSH2 0xB15 JUMP JUMPDEST SWAP3 SWAP2 POP POP JUMP JUMPDEST PUSH0 PUSH1 0x40 DUP3 DUP5 SUB SLT ISZERO PUSH2 0xB54 JUMPI PUSH2 0xB53 PUSH2 0xA56 JUMP JUMPDEST JUMPDEST PUSH2 0xB5E PUSH1 0x40 PUSH2 0xAC8 JUMP JUMPDEST SWAP1 POP PUSH0 PUSH2 0xB6D DUP5 DUP3 DUP6 ADD PUSH2 0xAF8 JUMP JUMPDEST PUSH0 DUP4 ADD MSTORE POP PUSH1 0x20 PUSH2 0xB80 DUP5 DUP3 DUP6 ADD PUSH2 0xB2B JUMP JUMPDEST PUSH1 0x20 DUP4 ADD MSTORE POP SWAP3 SWAP2 POP POP JUMP JUMPDEST PUSH0 PUSH1 0x40 DUP3 DUP5 SUB SLT ISZERO PUSH2 0xBA1 JUMPI PUSH2 0xBA0 PUSH2 0x7E0 JUMP JUMPDEST JUMPDEST PUSH0 PUSH2 0xBAE DUP5 DUP3 DUP6 ADD PUSH2 0xB3F JUMP JUMPDEST SWAP2 POP POP SWAP3 SWAP2 POP POP JUMP JUMPDEST PUSH2 0xBC0 DUP2 PUSH2 0xB0C JUMP JUMPDEST DUP3 MSTORE POP POP JUMP JUMPDEST PUSH0 PUSH1 0x20 DUP3 ADD SWAP1 POP PUSH2 0xBD9 PUSH0 DUP4 ADD DUP5 PUSH2 0xBB7 JUMP JUMPDEST SWAP3 SWAP2 POP POP JUMP JUMPDEST PUSH0 DUP2 MLOAD SWAP1 POP PUSH2 0xBED DUP2 PUSH2 0xB15 JUMP JUMPDEST SWAP3 SWAP2 POP POP JUMP JUMPDEST PUSH0 PUSH1 0x20 DUP3 DUP5 SUB SLT ISZERO PUSH2 0xC08 JUMPI PUSH2 0xC07 PUSH2 0x7E0 JUMP JUMPDEST JUMPDEST PUSH0 PUSH2 0xC15 DUP5 DUP3 DUP6 ADD PUSH2 0xBDF JUMP JUMPDEST SWAP2 POP POP SWAP3 SWAP2 POP POP JUMP JUMPDEST PUSH32 0x4E487B7100000000000000000000000000000000000000000000000000000000 PUSH0 MSTORE PUSH1 0x11 PUSH1 0x4 MSTORE PUSH1 0x24 PUSH0 REVERT JUMPDEST PUSH0 PUSH2 0xC55 DUP3 PUSH2 0xB0C JUMP JUMPDEST SWAP2 POP PUSH2 0xC60 DUP4 PUSH2 0xB0C JUMP JUMPDEST SWAP3 POP DUP3 DUP3 ADD SWAP1 POP DUP1 DUP3 GT ISZERO PUSH2 0xC78 JUMPI PUSH2 0xC77 PUSH2 0xC1E JUMP JUMPDEST JUMPDEST SWAP3 SWAP2 POP POP JUMP JUMPDEST PUSH0 PUSH2 0xC88 DUP3 PUSH2 0xB0C JUMP JUMPDEST SWAP2 POP PUSH32 0xFFFFFFFFFFFFFFFFFFFFFFFFFFFFFFFFFFFFFFFFFFFFFFFFFFFFFFFFFFFFFFFF DUP3 SUB PUSH2 0xCBA JUMPI PUSH2 0xCB9 PUSH2 0xC1E JUMP JUMPDEST JUMPDEST PUSH1 0x1 DUP3 ADD SWAP1 POP SWAP2 SWAP1 POP JUMP JUMPDEST PUSH0 PUSH1 0x40 DUP3 ADD SWAP1 POP PUSH2 0xCD8 PUSH0 DUP4 ADD DUP6 PUSH2 0xBB7 JUMP JUMPDEST PUSH2 0xCE5 PUSH1 0x20 DUP4 ADD DUP5 PUSH2 0xBB7 JUMP JUMPDEST SWAP4 SWAP3 POP POP POP JUMP JUMPDEST PUSH32 0x4E6F20626574732070726F766964656400000000000000000000000000000000 PUSH0 DUP3 ADD MSTORE POP JUMP JUMPDEST PUSH0 PUSH2 0xD20 PUSH1 0x10 DUP4 PUSH2 0x9B1 JUMP JUMPDEST SWAP2 POP PUSH2 0xD2B DUP3 PUSH2 0xCEC JUMP JUMPDEST PUSH1 0x20 DUP3 ADD SWAP1 POP SWAP2 SWAP1 POP JUMP JUMPDEST PUSH0 PUSH1 0x20 DUP3 ADD SWAP1 POP DUP2 DUP2 SUB PUSH0 DUP4 ADD MSTORE PUSH2 0xD4D DUP2 PUSH2 0xD14 JUMP JUMPDEST SWAP1 POP SWAP2 SWAP1 POP JUMP JUMPDEST PUSH0 PUSH1 0x80 DUP3 DUP5 SUB SLT ISZERO PUSH2 0xD69 JUMPI PUSH2 0xD68 PUSH2 0xA56 JUMP JUMPDEST JUMPDEST PUSH2 0xD73 PUSH1 0x80 PUSH2 0xAC8 JUMP JUMPDEST SWAP1 POP PUSH0 PUSH2 0xD82 DUP5 DUP3 DUP6 ADD PUSH2 0xAF8 JUMP JUMPDEST PUSH0 DUP4 ADD MSTORE POP PUSH1 0x20 PUSH2 0xD95 DUP5 DUP3 DUP6 ADD PUSH2 0xB2B JUMP JUMPDEST PUSH1 0x20 DUP4 ADD MSTORE POP PUSH1 0x40 PUSH2 0xDA9 DUP5 DUP3 DUP6 ADD PUSH2 0xB2B JUMP JUMPDEST PUSH1 0x40 DUP4 ADD MSTORE POP PUSH1 0x60 PUSH2 0xDBD DUP5 DUP3 DUP6 ADD PUSH2 0xB2B JUMP JUMPDEST PUSH1 0x60 DUP4 ADD MSTORE POP SWAP3 SWAP2 POP POP JUMP JUMPDEST PUSH0 PUSH1 0x80 DUP3 DUP5 SUB SLT ISZERO PUSH2 0xDDE JUMPI PUSH2 0xDDD PUSH2 0x7E0 JUMP JUMPDEST JUMPDEST PUSH0 PUSH2 0xDEB DUP5 DUP3 DUP6 ADD PUSH2 0xD54 JUMP JUMPDEST SWAP2 POP POP SWAP3 SWAP2 POP POP JUMP JUMPDEST PUSH0 PUSH1 0x60 DUP3 ADD SWAP1 POP PUSH2 0xE07 PUSH0 DUP4 ADD DUP7 PUSH2 0xBB7 JUMP JUMPDEST PUSH2 0xE14 PUSH1 0x20 DUP4 ADD DUP6 PUSH2 0xBB7 JUMP JUMPDEST PUSH2 0xE21 PUSH1 0x40 DUP4 ADD DUP5 PUSH2 0xBB7 JUMP JUMPDEST SWAP5 SWAP4 POP POP POP POP JUMP JUMPDEST PUSH0 PUSH2 0xE33 DUP3 PUSH2 0xB0C JUMP JUMPDEST SWAP2 POP PUSH2 0xE3E DUP4 PUSH2 0xB0C JUMP JUMPDEST SWAP3 POP DUP3 DUP3 SUB SWAP1 POP DUP2 DUP2 GT ISZERO PUSH2 0xE56 JUMPI PUSH2 0xE55 PUSH2 0xC1E JUMP JUMPDEST JUMPDEST SWAP3 SWAP2 POP POP JUMP JUMPDEST PUSH32 0x5265656E7472616E637947756172643A207265656E7472616E742063616C6C00 PUSH0 DUP3 ADD MSTORE POP JUMP JUMPDEST PUSH0 PUSH2 0xE90 PUSH1 0x1F DUP4 PUSH2 0x9B1 JUMP JUMPDEST SWAP2 POP PUSH2 0xE9B DUP3 PUSH2 0xE5C JUMP JUMPDEST PUSH1 0x20 DUP3 ADD SWAP1 POP SWAP2 SWAP1 POP JUMP JUMPDEST PUSH0 PUSH1 0x20 DUP3 ADD SWAP1 POP DUP2 DUP2 SUB PUSH0 DUP4 ADD MSTORE PUSH2 0xEBD DUP2 PUSH2 0xE84 JUMP JUMPDEST SWAP1 POP SWAP2 SWAP1 POP JUMP JUMPDEST PUSH2 0xECD DUP2 PUSH2 0x908 JUMP JUMPDEST DUP3 MSTORE POP POP JUMP JUMPDEST PUSH0 PUSH1 0x60 DUP3 ADD SWAP1 POP PUSH2 0xEE6 PUSH0 DUP4 ADD DUP7 PUSH2 0xEC4 JUMP JUMPDEST PUSH2 0xEF3 PUSH1 0x20 DUP4 ADD DUP6 PUSH2 0xEC4 JUMP JUMPDEST PUSH2 0xF00 PUSH1 0x40 DUP4 ADD DUP5 PUSH2 0xBB7 JUMP JUMPDEST SWAP5 SWAP4 POP POP POP POP JUMP JUMPDEST PUSH0 PUSH1 0x40 DUP3 ADD SWAP1 POP PUSH2 0xF1B PUSH0 DUP4 ADD DUP6 PUSH2 0xEC4 JUMP JUMPDEST PUSH2 0xF28 PUSH1 0x20 DUP4 ADD DUP5 PUSH2 0xBB7 JUMP JUMPDEST SWAP4 SWAP3 POP POP POP JUMP JUMPDEST PUSH0 DUP2 SWAP1 POP SWAP2 SWAP1 POP JUMP JUMPDEST PUSH0 DUP2 SWAP1 POP SWAP2 SWAP1 POP JUMP JUMPDEST PUSH0 PUSH2 0xF5B PUSH2 0xF56 PUSH2 0xF51 DUP5 PUSH2 0xF2F JUMP JUMPDEST PUSH2 0xF38 JUMP JUMPDEST PUSH2 0xB0C JUMP JUMPDEST SWAP1 POP SWAP2 SWAP1 POP JUMP JUMPDEST PUSH2 0xF6B DUP2 PUSH2 0xF41 JUMP JUMPDEST DUP3 MSTORE POP POP JUMP JUMPDEST PUSH0 PUSH1 0x40 DUP3 ADD SWAP1 POP PUSH2 0xF84 PUSH0 DUP4 ADD DUP6 PUSH2 0xEC4 JUMP JUMPDEST PUSH2 0xF91 PUSH1 0x20 DUP4 ADD DUP5 PUSH2 0xF62 JUMP JUMPDEST SWAP4 SWAP3 POP POP POP JUMP JUMPDEST PUSH0 PUSH1 0x20 DUP3 ADD SWAP1 POP PUSH2 0xFAB PUSH0 DUP4 ADD DUP5 PUSH2 0xEC4 JUMP JUMPDEST SWAP3 SWAP2 POP POP JUMP INVALID LOG2 PUSH5 0x6970667358 0x22 SLT KECCAK256 0xC9 0xC7 RETURNCONTRACT 0xB SWAP10 0x23 KECCAK256 0xB5 SWAP2 SWAP9 PUSH25 0xDBAD6955358D855382413328A7DA5AD5093441455264736F6C PUSH4 0x4300081E STOP CALLER "
				},
				"gasEstimates": {
					"creation": {
						"codeDepositCost": "814200",
						"executionCost": "22962",
						"totalCost": "837162"
					},
					"external": {
						"batchClaim((address,uint256)[])": "infinite",
						"placeBatchBets((address,uint256,uint256,uint256)[],address)": "infinite"
					}
				},
				"methodIdentifiers": {
					"batchClaim((address,uint256)[])": "8a48ca85",
					"placeBatchBets((address,uint256,uint256,uint256)[],address)": "ead99b61"
				}
			},
			"storageLayout": {
				"storage": [
					{
						"astId": 100,
						"contract": "MarketRouter.sol:MarketRouter",
						"label": "_status",
						"offset": 0,
						"slot": "0",
						"type": "t_uint256"
					}
				],
				"types": {
					"t_uint256": {
						"encoding": "inplace",
						"label": "uint256",
						"numberOfBytes": "32"
					}
				}
			},
			"userdoc": {
				"kind": "user",
				"methods": {},
				"version": 1
			}
		}
	}
}